:100000000C946B000C9488000C9488000C9488006D
:100010000C9488000C9429020C9488000C9488009D
:100020000C9488000C94F1010C9488000C94BC0191
:100030000C9488000C9488000C9488000C94880020
:100040000C9488000C9488000C9488000C94880010
:100050000C94880008000000BE922449123EABAA0E
:10006000AA2ABECDCCCC4C3E00000080BEABAAAAD2
:10007000AA3E00000000BF000000803F000000001A
:1000800000084178D3BB4387D1133D190E3CC3BD53
:100090004282AD2B3E68EC8276BED98FE1A93E4C00
:1000A00080EFFFBE01C4FF7F3F0000000000076338
:1000B0004236B79BD8A71A39685618AEBAAB558CDA
:1000C0001D3CB7CC5763BD6DEDFD753EF617723123
:1000D000BF000000803F11241FBECFE5D8E0DEBF87
:1000E000CDBF12E0A0E6B0E0E0EDF1E302C0059084
:1000F0000D92A830B107D9F722E0A8E0B2E001C024
:100100001D92A636B207E1F70E94F9100C94E6188A
:100110000C940000813091F018F0823009F10895BC
:1001200010921802109217028091190282BF89B7AB
:10013000816089BF80911A0283BF089510921102D5
:100140001092100280911202909113029DBD8CBDFD
:1001500089B7846089BF1FBC809114028EBD089549
:1001600010920B0210920A0280910C0284BD89B792
:10017000806489BF80910D0285BD0895813059F05A
:1001800018F0823079F0089589B7816089BF809135
:100190001A0283BF089589B7846089BF80911402D1
:1001A0008EBD089589B7806489BF80910D0285BD99
:1001B0000895813049F018F0823059F00895709315
:1001C000160260931502089570930F0260930E0259
:1001D0000895709309026093080208957F928F92A8
:1001E0009F92AF92BF92CF92DF92EF92FF920F93C6
:1001F0001F93CF93DF93813081F120F0823009F497
:1002000070C0A7C0E0911A02F0E0EE0FFF1FE952A4
:10021000FF4FC081D18170901902072D10E0A0E03E
:10022000B1E0A01BB10B80906000912CA12CB12CEF
:100230009E010E946911A50194010E942811A091BC
:100240001702B09118020E9470116B017C0182B7F5
:10025000781608F081C0A2B76DC0E0911402F0E0FA
:10026000EE0FFF1FE952FF4F00811181A090120293
:10027000B0901302C091600080E090E0A1E0B0E097
:100280009C01AD012A193B0941095109D8010E947D
:1002900070112C2F30E040E050E00E944A11A091F4
:1002A0001002B09111020E9470116B017C018CB59B
:1002B0009DB5A816B90608F04FC02CB53DB52A1952
:1002C0003B09209FC001219F900D309F900D11246C
:1002D0006C2F70E00E941411C60ED71EE11CF11C99
:1002E0003BC0E0910D02F0E0EE0FFF1FE953FF4F1E
:1002F000C081D18170900C02072D10E0A0E0B1E028
:10030000A01BB10B80906000912CA12CB12C9E0100
:100310000E946911A50194010E942811A0910A026E
:10032000B0910B020E9470116B017C0184B57816AC
:1003300098F4A4B5B0E0A01BB10B9E010E94691116
:10034000A50194010E942811C20ED31EE41EF51EC1
:1003500003C0C12CD12C7601C701B601DF91CF912A
:100360001F910F91FF90EF90DF90CF90BF90AF90D3
:100370009F908F907F9008951F920F920FB60F92CB
:1003800011242F933F934F935F936F937F938F939A
:100390009F93AF93BF93EF93FF938091190282BF16
:1003A0008091170290911802019690931802809301
:1003B0001702E0911502F0911602309709F00995A5
:1003C000FF91EF91BF91AF919F918F917F916F912D
:1003D0005F914F913F912F910F900FBE0F901F9003
:1003E00018951F920F920FB60F9211242F933F93DF
:1003F0004F935F936F937F938F939F93AF93BF932D
:10040000EF93FF9380911202909113029DBD8CBDDA
:1004100080911002909111020196909311028093A5
:100420001002E0910E02F0910F02309709F0099549
:10043000FF91EF91BF91AF919F918F917F916F91BC
:100440005F914F913F912F910F900FBE0F901F9092
:1004500018951F920F920FB60F9211242F933F936E
:100460004F935F936F937F938F939F93AF93BF93BC
:10047000EF93FF9380910C0284BD80910A029091CA
:100480000B02019690930B0280930A02E0910802FE
:10049000F0910902309709F00995FF91EF91BF9112
:1004A000AF919F918F917F916F915F914F913F910C
:1004B0002F910F900FBE0F901F9018954F925F9243
:1004C0006F927F928F929F92AF92BF92CF92DF9264
:1004D000EF92FF920F931F93CF93DF934B015C0139
:1004E00029013A01DE2DC0906000D12CE12CF12CC5
:1004F0000E5F1F4FC1E0CD1798F4F801A191B191A3
:100500008F01A30192010E947011A70196010E9420
:100510002811281539054A055B0510F4CF5FEBCF8C
:100520008C2FDF91CF911F910F91FF90EF90DF9073
:10053000CF90BF90AF909F908F907F906F905F9083
:100540004F9008958F929F92AF92BF92EF920F9328
:100550001F934A015B018130A9F120F0823009F438
:1005600064C091C0DB01CA010197A109B1098115DD
:100570009044A105B10508F086C056E0E52E07EDD0
:1005800010E020E031E040E050E0C501B4010E94FD
:100590005E02E82F80931A02A0916000B0E0A501EE
:1005A00094010E947011F0E0EE0FFF1FE952FF4F1F
:1005B0002081318140E050E00E9428112195209354
:1005C000190261C0DB01CA010197A109B1090097B5
:1005D000A044B10508F057C036E0E32E07ED10E067
:1005E00020E030E041E050E0C501B4010E945E022D
:1005F000E82F80931402A0916000B0E0A50194015F
:100600000E947011F0E0EE0FFF1FE952FF4F2081B2
:10061000318140E050E00E94281131952195310947
:1006200030931302209312022EC0DB01CA010197FE
:10063000A109B10981159044A105B10520F588E013
:10064000E82E07EC10E020E031E040E050E0C5018A
:10065000B4010E945E02E82F80930D02A091600019
:10066000B0E0A50194010E947011F0E0EE0FFF1FB1
:10067000E953FF4F2081318140E050E00E94281172
:10068000219520930C021F910F91EF90BF90AF9096
:100690009F908F9008950C94A202E199FECF9FBB8A
:1006A0008EBB6DBBE29AE19A0895E199FECF9FBBA4
:1006B0008EBBE09A8DB30895EF92FF920F931F9334
:1006C000CF93DF938B01040F151FEB017C01E61A1A
:1006D000F70ACE018E0D9F1DC017D10721F0699139
:1006E0000E944D03F6CFDF91CF911F910F91FF90A4
:1006F000EF900895EF92FF920F931F93CF93DF93A4
:100700008B01040F151FEB017C01E61AF70ACE01DD
:100710008E0D9F1DC017D10721F00E9455038993AC
:10072000F6CFDF91CF911F910F91FF90EF90089539
:10073000EF92FF920F931F93CF93DF93EB017C0116
:10074000E61AF70A8E01C7018C0F9D1F69910E945E
:100750004D03F80180818111F5CFDF91CF911F9179
:100760000F91FF90EF9008950F931F93CF93DF9316
:10077000EB018C01061B170BCE01800F911F0E940D
:10078000550389938111F8CFDF91CF911F910F917C
:100790000895CF93DF93C0E0D0E06FEFCE010E94C9
:1007A0004D032196C11584E0D807B9F7DF91CF91A9
:1007B00008950E94DB0D0E94EB0D0E94E30D2FEFC8
:1007C00089E698E1215080409040E1F700C00000A8
:1007D0000E94ED0D0E94E50D2FEF89E698E1215072
:1007E00080409040E1F700C00000E5CF0E94F10E8C
:1007F0000E94CD0E8FE59AEE0197F1F700C0000040
:1008000061E081E00E94DA0E83EE90E00E945D0FCD
:1008100061E082E00E94DA0E0E94EF0DC0E0D0E0BD
:100820000E94000E882361F00E942E0F21969FEFF8
:1008300020E782E0915020408040E1F700C00000B6
:10084000C031D1056CF30E94CD0E61E081E00E94C1
:10085000DA0E83EE90E00E945D0F61E082E00E947C
:10086000DA0E9FEF29E688E1915020408040E1F7C1
:1008700000C00000D3CF0E941E0D0E94F10E0E9406
:10088000CD0E61E081E00E94DA0E8FEE90E00E94D2
:100890005D0F0E943D106093440270934502809367
:1008A00046029093470261E082E00E94DA0E8CEFEC
:1008B00090E00E945D0F2FEF89E698E12150804083
:1008C0009040E1F700C000000E94CD0E61E081E0A1
:1008D0000E94DA0E88E091E00E945D0F6091440270
:1008E0007091450280914602909147020E94960FB6
:1008F0008DE091E00E945D0F2FEF89E698E1215095
:1009000080409040E1F700C000000E9472102091EA
:1009100044023091450240914602509147020E94A4
:10092000FC1141E050E00E94C6108C010E94721040
:100930002091440230914502409146025091470275
:100940000E94FC1140E050E00E94C610EC010E94A1
:100950003C0D6B017C0161E081E00E94DA0E85E1D3
:1009600091E00E945D0FB801110F880B990B0E9456
:10097000A6120E94960F88E191E00E945D0FBE01D1
:10098000DD0F880B990B0E94A6120E94960F61E062
:1009900082E00E94DA0E8EE191E00E945D0F20E07D
:1009A00030E040E251E4C701B6010E94FC110E9410
:1009B000960F85E291E00E945D0FA7CF0E941E0D69
:1009C0000E94F10E0E94CD0E61E081E00E94DA0EDD
:1009D0008EE191E00E945D0F0E943C0DFDCF809161
:1009E00048028823C1F01092480280911B02909126
:1009F0001C02019690931C0280931B028091490275
:100A00000E942E0F2FEF82E597E02150804090400A
:100A1000E1F700C0000080911B0290911C024097FA
:100A200054F00E94CD0E61E081E00E94DA0E109237
:100A30001C0210921B020895CF93DF930E94CD0EEB
:100A400060E181E00E94DA0E84EA90E00E945D0F8E
:100A500060E182E00E94DA0E85E990E00E945D0F7D
:100A6000CEE0D0E00E940A102FEF80E792E0215004
:100A700080409040E1F700C00000219799F72FEFE8
:100A800083ED90E3215080409040E1F700C00000EA
:100A90000E94CD0E60E181E00E94DA0E84E890E0D1
:100AA0000E945D0F60E182E00E94DA0E85E790E02F
:100AB0000E945D0FCFE0D0E00E940A102FEF80E788
:100AC00092E0215080409040E1F700C00000219763
:100AD00099F72FEF83ED90E3215080409040E1F7AC
:100AE00000C00000DF91CF910895CF93DF930E9463
:100AF000CD0E61E081E00E94DA0E8BE690E00E946C
:100B00005D0F0E943D10C3E2D2E069A37AA38BA3DC
:100B10009CA36DE081E00E94DA0E88E690E00E94DE
:100B20005D0F61E082E00E94DA0E8AE291E00E94AD
:100B30005D0F69A17AA18BA19CA10E94960F8EE006
:100B400091E00E945D0F0E94E30D2FEF84E39CE093
:100B5000215080409040E1F700C000000E94E50D68
:100B60002FEF84E39CE0215080409040E1F700C0EB
:100B70000000DF91CF910C94CD0ECF93DF93C3E2B1
:100B8000D2E06881798180E090E00E94AA186D89A6
:100B90007E8984E090E00E94AA18698D7A8D88E0B1
:100BA00090E00E94AA186D8D7E8D8AE090E00E94F0
:100BB000AA1845E050E060E270E085E292E00E9411
:100BC00093184CE050E060E370E08AE292E00E940B
:100BD000931861E082E00E94DA0E80E391E00E94C7
:100BE0005D0F2FEF8EE994E2215080409040E1F7B5
:100BF00000C00000DF91CF91089580E090E00E9456
:100C00008D18909324028093230284E090E00E9448
:100C10008D18909339028093380288E090E00E940A
:100C20008D1890933D0280933C028AE090E00E94F0
:100C30008D18909341028093400245E050E060E2BD
:100C400070E085E292E00E947D184CE050E060E3A5
:100C500070E08AE292E00E947D18809123029091D8
:100C600024028130910571F180ED97E09093390273
:100C70008093380290933D0280933C0281E290E0A1
:100C800090934102809340021092370210923602F4
:100C900010923B0210923A0210923F0210923E02D2
:100CA00010922402109223020E94CD0E61E081E096
:100CB0000E94DA0E8DE391E00E945D0F0E94BD0557
:100CC00080E090E008950F931F93CF93DF9300D0BF
:100CD00000D01F92CDB7DEB70E94CD0E63E081E059
:100CE0000E94DA0E88E491E00E945D0F66E082E0E7
:100CF0000E94DA0E2FEF82E597E02150804090406D
:100D0000E1F700C000001092480200E010E080917E
:100D100048028823E9F08AE20E942E0F0E94E30D28
:100D20002FEF81EE94E0215080409040E1F700C029
:100D300000000E94E50DE1E0F0E0EC0FFD1FE00F88
:100D4000F11F8091490280830F5F1F4F109248026C
:100D50002FEF84E39CE0215080409040E1F700C0F9
:100D60000000043011059CF21D8244E050E0BE01F9
:100D70006F5F7F4F85E292E00E94B4158C01892B52
:100D8000C9F10E94CD0E63E081E00E94DA0E83E596
:100D900091E00E945D0F0E94E30D2FEF84E39CE041
:100DA000215080409040E1F700C000000E94E50D16
:100DB0002FEF84E39CE0215080409040E1F700C099
:100DC00000000E94E30D2FEF84E39CE0215080405F
:100DD0009040E1F700C000000E94E50D2FEF8EE982
:100DE00094E2215080409040E1F700C0000001E013
:100DF00010E020C00E94CD0E65E081E00E94DA0E76
:100E000087E591E00E945D0F0E94E30D2FEF89E6D8
:100E100098E1215080409040E1F700C000000E941E
:100E2000E50D2FEF83ED90E3215080409040E1F7F6
:100E300000C00000C8010F900F900F900F900F900E
:100E4000DF91CF911F910F9108950F931F93CF932F
:100E5000DF93CDB7DEB72A970FB6F894DEBF0FBE8B
:100E6000CDBF0E94CD0E63E081E00E94DA0E8FE5D7
:100E700091E00E945D0F66E082E00E94DA0E2FEFA3
:100E800082E597E0215080409040E1F700C00000EB
:100E90001092480200E010E0809148028823E9F0B7
:100EA0008AE20E942E0F0E94E30D2FEF81EE94E064
:100EB000215080409040E1F700C000000E94E50D05
:100EC000E6E0F0E0EC0FFD1FE00FF11F809149021A
:100ED00080830F5F1F4F109248022FEF84E39CE046
:100EE000215080409040E1F700C00000043011051F
:100EF0009CF2E6E0F0E0EC0FFD1FE00FF11F108226
:100F00000E94CD0E66E081E00E94DA0E80E791E05B
:100F10000E945D0F66E082E00E94DA0E2FEF82E50C
:100F200097E0215080409040E1F700C0000010920F
:100F3000480200E010E0809148028823E9F08AE24C
:100F40000E942E0F0E94E30D2FEF81EE94E02150BE
:100F500080409040E1F700C000000E94E50DE1E014
:100F6000F0E0EC0FFD1FE00FF11F8091490280833C
:100F70000F5F1F4F109248022FEF84E39CE0215037
:100F800080409040E1F700C00000043011059CF261
:100F9000E1E0F0E0EC0FFD1FE00FF11F1082BE0159
:100FA0006F5F7F4FCE0106960E94A4158C01892B9E
:100FB000C9F10E94CD0E63E081E00E94DA0E8CE65A
:100FC00091E00E945D0F0E94E30D2FEF84E39CE00F
:100FD000215080409040E1F700C000000E94E50DE4
:100FE0002FEF84E39CE0215080409040E1F700C067
:100FF00000000E94E30D2FEF84E39CE0215080402D
:101000009040E1F700C000000E94E50D2FEF8EE94F
:1010100094E2215080409040E1F700C0000001E0E0
:1010200010E027C00E94CD0E63E081E00E94DA0E3E
:1010300086E791E00E945D0FBE016A5F7F4F85E207
:1010400092E00E94AD150E94E30D2FEF89E698E132
:10105000215080409040E1F700C000000E94E50D63
:101060002FEF83ED90E3215080409040E1F700C0E6
:101070000000C8012A960FB6F894DEBF0FBECDBFA0
:10108000DF91CF911F910F9108950F931F93CF93ED
:10109000DF93CDB7DEB72C970FB6F894DEBF0FBE47
:1010A000CDBF0E94CD0E67E081E00E94DA0E83E89A
:1010B00091E00E945D0F63E082E00E94DA0E2FEF64
:1010C00082E597E0215080409040E1F700C00000A9
:1010D0001092480200E010E0809148028823F1F06D
:1010E000809149020E942E0F0E94E30D2FEF81EEA6
:1010F00094E0215080409040E1F700C000000E9441
:10110000E50DE1E0F0E0EC0FFD1FE00FF11F809135
:10111000490280830F5F1F4F109248022FEF84E334
:101120009CE0215080409040E1F700C000000B306F
:10113000110594F2E1E0F0E0EC0FFD1FE00FF11F6C
:1011400010820E94CD0E64E081E00E94DA0E87E8F2
:1011500091E00E945D0FBE016F5F7F4F8AE292E0D7
:101160000E94AD150E94E30D2FEF89E698E1215012
:1011700080409040E1F700C000000E94E50D2FEF95
:1011800083ED90E3215080409040E1F700C00000E3
:1011900080E090E02C960FB6F894DEBF0FBECDBF76
:1011A000DF91CF911F910F9108950F931F93CF93CC
:1011B000DF93CDB7DEB729970FB6F894DEBF0FBE29
:1011C000CDBF0E94CD0E62E081E00E94DA0E80E980
:1011D00091E00E945D0F63E082E00E94DA0E2FEF43
:1011E00082E597E0215080409040E1F700C0000088
:1011F0001092480200E010E080914802882301F13B
:10120000809149028A3241F10E942E0F0E94E30D23
:101210002FEF81EE94E0215080409040E1F700C034
:1012200000000E94E50DE1E0F0E0EC0FFD1FE00F93
:10123000F11F8091490280830F5F1F4F1092480277
:101240002FEF84E39CE0215080409040E1F700C004
:1012500000000930110584F2E1E0F0E0EC0FFD1F21
:10126000E00FF11F1082CE0101960E948615909327
:101270003902809338020E94CD0E64E081E00E9422
:10128000DA0E87E891E00E945D0F0E94E30D2FEFD8
:1012900089E698E1215080409040E1F700C00000CD
:1012A0000E94E50D2FEF89E698E1215080409040A3
:1012B000E1F700C000000E94CD0E62E081E00E94D4
:1012C000DA0E8DE991E00E945D0F63E082E00E94FA
:1012D000DA0E2FEF82E597E0215080409040E1F751
:1012E00000C000001092480200E010E08091480227
:1012F000882301F1809149028A3241F10E942E0F28
:101300000E94E30D2FEF81EE94E021508040904049
:10131000E1F700C000000E94E50DE1E0F0E0EC0F15
:10132000FD1FE00FF11F8091490280830F5F1F4F67
:10133000109248022FEF84E39CE0215080409040BF
:10134000E1F700C000000930110584F2E1E0F0E0AF
:10135000EC0FFD1FE00FF11F1082CE0101960E94DD
:10136000861590933D0280933C020E94CD0E64E06E
:1013700081E00E94DA0E87E891E00E945D0F0E94F2
:10138000E30D2FEF89E698E1215080409040E1F78E
:1013900000C000000E94E50D2FEF89E698E1215082
:1013A00080409040E1F700C000000E94CD0E61E057
:1013B00081E00E94DA0E8CEA91E00E945D0F80913C
:1013C0003802909139020E94690F80EB91E00E94EF
:1013D0005D0F80913C0290913D020E94690F0E9436
:1013E000E30D2FEF84E39CE0215080409040E1F733
:1013F00000C000000E94E50D2FEF8DE399E421501D
:1014000080409040E1F700C0000080E090E0299625
:101410000FB6F894DEBF0FBECDBFDF91CF911F9105
:101420000F9108950F931F93CF93DF93CDB7DEB73E
:1014300029970FB6F894DEBF0FBECDBF0E94CD0E28
:1014400062E081E00E94DA0E86EB91E00E945D0F7F
:1014500063E082E00E94DA0E2FEF82E597E02150F0
:1014600080409040E1F700C000001092480200E088
:1014700010E080914802882301F1809149028A326C
:1014800041F10E942E0F0E94E30D2FEF81EE94E0B8
:10149000215080409040E1F700C000000E94E50D1F
:1014A000E1E0F0E0EC0FFD1FE00FF11F8091490239
:1014B00080830F5F1F4F109248022FEF84E39CE060
:1014C000215080409040E1F700C000000930110534
:1014D00084F2E1E0F0E0EC0FFD1FE00FF11F10825D
:1014E000CE0101960E94861590934102809340029E
:1014F0000E94CD0E64E081E00E94DA0E87E891E060
:101500000E945D0F0E94E30D2FEF89E698E12150C4
:1015100080409040E1F700C000000E94E50D2FEFF1
:1015200089E698E1215080409040E1F700C000003A
:101530000E94CD0E61E081E00E94DA0E80EC91E025
:101540000E945D0F80914002909141020E94690FBC
:101550000E94E30D2FEF84E39CE0215080409040F7
:10156000E1F700C000000E94E50D2FEF8DE399E444
:10157000215080409040E1F700C0000029960FB64E
:10158000F894DEBF0FBECDBFDF91CF911F910F91B9
:1015900008950E94E50D0C94ED0D20913A023091D2
:1015A0003B0280913C0290913D0228173907CCF410
:1015B00020913602309137028091380290913902A1
:1015C000281739078CF420913E0230913F02809118
:1015D000400290914102281739074CF480E090E0D6
:1015E000089581E090E0089582E090E0089583E01E
:1015F00090E008950F931F93892B61F181E090E0B3
:1016000090932202809321020E94EB0D60911D02B3
:1016100070911E0280911F02909120028B019C010B
:101620000F5F1F4F2F4F3F4F00931D0210931E025D
:1016300020931F023093200224E630E040E050E087
:101640000E944A11672B682B692BA1F01F910F9103
:101650000C94DE0D8091210290912202019751F4A9
:1016600010922202109221020E94ED0D1F910F9103
:101670000C94E50D1F910F910895CF93DF930E9475
:1016800072102091440230914502409146025091DF
:1016900047020E94FC1141E050E00E94C610909366
:1016A0003B0280933A020E947210209144023091D2
:1016B000450240914602509147020E94FC1140E0D1
:1016C00050E00E94C61090933702809336020E9429
:1016D0003C0D20E030E040E251E40E94FC110E9409
:1016E0006E1270933F0260933E020E94CD0E0E94E4
:1016F000CD0AEC010E94FA0AC130D10509F44EC0AE
:1017000074F5CD2B09F07DC061E081E00E94DA0E16
:1017100085E191E00E945D0F80913A0290913B0239
:101720000E94690F88E191E00E945D0F809136026E
:10173000909137020E94690F61E082E00E94DA0E08
:101740008EE191E00E945D0F80913E0290913F02F8
:101750000E94690F85E291E00E945D0F52C0C23085
:10176000D105A9F1239709F04CC061E081E00E9406
:10177000DA0E8AEC91E00E945D0F8AE292E00E940C
:101780005D0F61E082E00E94DA0E82EE91E00E943D
:101790005D0F80913E0290913F0231C061E081E097
:1017A0000E94DA0E8AEC91E00E945D0F8AE292E0DC
:1017B0000E945D0F61E082E00E94DA0E80ED91E010
:1017C0000E945D0F80913A0290913B0218C061E047
:1017D00081E00E94DA0E8AEC91E00E945D0F8AE2BD
:1017E00092E00E945D0F61E082E00E94DA0E89EDD6
:1017F00091E00E945D0F80913602909137020E9425
:10180000690F2FE78AE196E0215080409040E1F790
:1018100000C00000DF91CF910895E3E2F2E015A24D
:1018200016A208950E94CD0E61E081E00E94DA0EBA
:101830008BEE91E00E945D0F0E94E30D2FEF84E399
:101840009CE0215080409040E1F700C000000E94E1
:10185000E50D2FEF8DE399E4215080409040E1F7B2
:1018600000C00000E9CFCF93DF93809142029091B6
:1018700043028230910579F140F40097B9F0019765
:1018800009F074C00E940D0C17C08430910509F452
:1018900065C070F1059709F069C00E940D0C0E94A7
:1018A000CD0E0E9475050E94BD055CC00E940D0C06
:1018B000DF91CF910C943D0B0E942507892BE1F716
:1018C0000E944508892BE1F781E090E09093240283
:1018D0008093230206C00E940D0C0E94D5080E942E
:1018E000120A0E94BD0510924302109242023AC0B1
:1018F0000E940D0C0E941C050E9475058091230218
:10190000909124020197D9F00E942507892BE1F7D5
:101910000E944508892BE1F70E94D5080E94120A0F
:1019200081E090E090932402809323020E94BD0501
:101930000E940D0C109243021092420217C0C3E0A5
:10194000D0E00E946306892B71F22197D1F784E0E1
:1019500090E0909343028093420204C00E940D0CD9
:101960000E94120CDF91CF910C94CD0EDF91CF919C
:1019700008958234910571F024F48134910541F089
:1019800008958334910541F08434910539F0089528
:101990000C94EB0D0C94ED0D0C94E30D0C94E50DF3
:1019A00080914802882339F11092480280914902BF
:1019B000082E000C990B0E94B90C809149028233C9
:1019C00071F01CF4813331F00895833359F084337E
:1019D00061F008951092430210924202089581E04E
:1019E00090E005C082E090E002C085E090E0909336
:1019F0004302809342020895CF93DF930E94CD0E5D
:101A000061E081E00E94DA0EC3E2D2E08D899E8916
:101A10000E94690F62E082E00E94DA0E898D9A8D41
:101A20000E94690F2FEF8DE399E421508040904090
:101A3000E1F700C00000DF91CF91089517B83D98FD
:101A400087B1806C87B916B886B1866886B9089563
:101A5000369A089597B1907697B997B1892B87B93F
:101A60000E94280D349BFECF24B185B190E0982FC1
:101A70008827820F911D08954F925F926F927F92F7
:101A80008F929F92AF92BF92CF92DF92EF92FF928E
:101A9000CF93DF93C0E0D0E0C12CD12C760181E060
:101AA0000E942A0DBC0180E090E00E94A4122CEE5E
:101AB00031E548E55FE30E94A6134B015C01C701D5
:101AC000B6010E94A6129B01AC01C501B4010E949F
:101AD0008B110E946E126B017C018FEC97E00197D5
:101AE000F1F700C000002196C83CD105C1F6C7013E
:101AF000B60128EC30E040E050E00E944A11490174
:101B00005A01C0E0D0E0C12CD12C760182E00E94C5
:101B10002A0DBC0180E090E00E94A4122CEE31E579
:101B200048E55FE30E94A6132B013C01C701B60103
:101B30000E94A6129B01AC01C301B2010E948B114D
:101B40000E946E126B017C018FEC97E00197F1F718
:101B500000C000002196C83CD105C1F6C501B40102
:101B60000E94A6124B015C01C701B60128EC30E0CF
:101B700040E050E00E944A11CA01B9010E94A61239
:101B80009B01AC01C501B4010E948A1120E030E440
:101B90004CE950E40E94A613DF91CF91FF90EF90A3
:101BA000DF90CF90BF90AF909F908F907F906F907D
:101BB0005F904F9008958FEF81BB089592B380E4BA
:101BC000892782BB0895969A08959698089582B3BE
:101BD000805882BB0895979A08959798089580EF4A
:101BE00084BB8FEC97E00197F1F700C000008FE015
:101BF00085BB8FEC97E00197F1F700C000000895D6
:101C000083B3803F09F46AC023B394B3909594BB27
:101C10008FEC97E00197F1F700C0000095B3909525
:101C200095BB8FEC97E00197F1F700C0000083B3FC
:101C3000822B8E3BD1F198F48E37A9F140F48B378B
:101C400031F18D3731F18737B1F581E308958B3B61
:101C500011F18D3B11F1873B71F584E308958E3DC1
:101C600031F140F48B3DD9F08D3DD9F0873D19F528
:101C700087E308958B3EA1F120F4873EE1F48AE2E8
:101C800008958D3EB1F08E3EB1F484E4089582E370
:101C9000089583E3089585E3089586E3089588E32E
:101CA000089589E3089581E4089582E4089583E422
:101CB000089583E2089584B3809584BB8FEC97E008
:101CC0000197F1F700C0000085B3809585BB8FECCC
:101CD00097E00197F1F700C00000089580E00895B3
:101CE00080E3089598B321E030E001C0220F8A9587
:101CF000EAF72095292328BB0895662379F06130FF
:101D000079F448B321E030E0B90102C0660F771FD3
:101D10008A95E2F7CB01842B88BB08950C94720E50
:101D200008950C947D0ECF93C82F80FF02C0C49AF3
:101D300003C084E00E94720EC1FF02C0C59A03C0B6
:101D400085E00E94720EC2FF02C0C69A03C086E000
:101D50000E94720EC3FF03C0C79ACF91089587E017
:101D6000CF910C94720ECF93C82F80E00E94720E18
:101D70008C2F0E94930EC29A8FEC97E00197F1F797
:101D800000C0000082E00E94720E8FEC97E0019785
:101D9000F1F700C00000CF91089580E00E94B30EDB
:101DA00081E00E94B30E8FE697E10197F1F700C042
:101DB00000000895CF93813011F4CFE703C0823043
:101DC00071F4CFEBC60F8C2F8595859585958595FC
:101DD0000E94B30E8C2F8F70CF910C94B30ECF91C5
:101DE00008958FEF87BB80E00E94930E8FE39CE9FC
:101DF0000197F1F700C0000083E00E94B30E8FE06E
:101E000097E20197F1F700C0000083E00E94B30E53
:101E10008FEE95E50197F1F700C0000083E00E9486
:101E2000B30E82E00E94B30E82E00E94B30E88E0FF
:101E30000E94B30E80E00E94B30E8CE00E94B30EAD
:101E400080E00E94B30E86E00E94B30E0E94CD0E89
:101E500088EF0E94B30E80E00C94B30ECF93C82F8E
:101E6000C09A85958595859585950E94930EC29A11
:101E70008FEC97E00197F1F700C0000082E00E942C
:101E8000720E8FEC97E00197F1F700C000008C2FE5
:101E90008F700E94930EC29A8FEC97E00197F1F732
:101EA00000C0000082E00E94720E8FEC97E0019764
:101EB000F1F700C00000CF910895CF93DF93EC01BC
:101EC0008991882319F00E942E0FFACFDF91CF91CC
:101ED00008950F931F93CF93DF93CDB7DEB7A097ED
:101EE0000FB6F894DEBF0FBECDBF9F938F938BEFDD
:101EF00091E09F938F938E010F5F1F4F1F930F935E
:101F00000E94CA15C8010E945D0F0F900F900F909C
:101F10000F900F900F90A0960FB6F894DEBF0FBEF3
:101F2000CDBFDF91CF911F910F9108958F929F9216
:101F3000AF92BF92CF92DF92EF92FF920F931F93D7
:101F4000CF93DF93CDB7DEB7A0970FB6F894DEBF7F
:101F50000FBECDBF6B017C0120E030E0A9010E94E3
:101F6000F71187FD03C001EE11E006C00EE811E095
:101F7000F7FAF094F7F8F094C701B6010E946E12D8
:101F80004B015C01072E000C880B990B0E94A612D6
:101F90009B01AC01C701B6010E948A1120E030E02C
:101FA00048EC52E40E94A6130E9463140E946E1231
:101FB0007F936F939F928F921F930F938EEF91E079
:101FC0009F938F938E010F5F1F4F1F930F930E945C
:101FD000CA15C8010E945D0F0FB6F894DEBF0FBE90
:101FE000CDBFA0960FB6F894DEBF0FBECDBFDF9178
:101FF000CF911F910F91FF90EF90DF90CF90BF9006
:10200000AF909F908F90089581E00E94B30E8CE076
:102010000C94B30E81E00E94B30E88E00C94B30ED2
:10202000CF92DF92EF92FF92CF93DF93EC018FEF8D
:1020300093E0BC016C1B7D0B072E000C880B990BE9
:102040000E94A6122DEC3CEC4CE950E40E94A61331
:102050006B017C01BE01DD0F880B990B0E94A6125B
:102060009B01AC01C701B6010E94FC11DF91CF9129
:10207000FF90EF90DF90CF900895CF92DF92EF9294
:10208000FF92CF93DF93C2E3D0E0C12CD12C760135
:1020900080E00E942A0D0E9410109B01AC01C70134
:1020A000B6010E948B116B017C018FE19EE40197C8
:1020B000F1F700C00000219759F720E030E048E434
:1020C00052E4C701B6010E94FC112EEA37E44DE14B
:1020D00051E40E94FC11DF91CF91FF90EF90DF90CF
:1020E000CF900895CF92DF92EF92FF92CF93DF933C
:1020F000C2E3D0E0C12CD12C760180E00E942A0DF1
:102100000E9410109B01AC01C701B6010E948B1107
:102110006B017C018FE097E20197F1F700C00000AE
:10212000219759F720E030E048E452E4C701B601B6
:102130000E94FC11DF91CF91FF90EF90DF90CF9044
:102140000895CF93DF93EA010E945E132C813D81B5
:102150004E815F810E948A11288539854A855B8579
:102160000E94FC11288139814A815B810E948B1178
:102170009B01AC0160E070E080E291E40E941314E6
:102180000E946E12CB01DF91CF9108954115510548
:1021900019F44BEB50E005C04130510521F44FEAF2
:1021A00050E00C94A11080E090E008950E94000E91
:1021B000882329F08093490281E0809348020895A2
:1021C00040E050E460E070E080E00E944B0366ED88
:1021D00070E180E00E94D90080E00E948A0078943B
:1021E00008950E94F10E0E94EF0D0E94DB0D0C94E9
:1021F0001E0D0E94F1100E94E0100E94F10E0E943C
:10220000CD0E0E94FD050E940D0C10924B02109203
:102210004A0283E090E090934302809342020E943E
:10222000330C0E94D00CFBCFAA1BBB1B51E107C093
:10223000AA1FBB1FA617B70710F0A61BB70B881F56
:10224000991F5A95A9F780959095BC01CD010895E5
:10225000A1E21A2EAA1BBB1BFD010DC0AA1FBB1FAA
:10226000EE1FFF1FA217B307E407F50720F0A21B1C
:10227000B30BE40BF50B661F771F881F991F1A9489
:1022800069F760957095809590959B01AC01BD01B3
:10229000CF010895052E97FB1EF400940E94611152
:1022A00057FD07D00E94281107FC03D04EF40C9470
:1022B000611150954095309521953F4F4F4F5F4F9D
:1022C000089590958095709561957F4F8F4F9F4FA2
:1022D00008950E947B11B7FF0895821B930B089508
:1022E0000E947B11A59F900DB49F900DA49F800D1F
:1022F000911D11240895A29FB001B39FC001A39F17
:10230000700D811D1124911DB29F700D811D11242E
:10231000911D08955058BB27AA270E94A2110C9422
:102320001C130E940E1338F00E94151320F039F48C
:102330009F3F19F426F40C940B130EF4E095E7FB81
:102340000C940513E92F0E942D1358F3BA17620756
:1023500073078407950720F079F4A6F50C944F13C2
:102360000EF4E0950B2EBA2FA02D0B01B9019001B0
:102370000C01CA01A0011124FF27591B99F0593FF4
:1023800050F4503E68F11A16F040A22F232F342F3C
:102390004427585FF3CF469537952795A795F0408A
:1023A0005395C9F77EF41F16BA0B620B730B840B9F
:1023B000BAF09150A1F0FF0FBB1F661F771F881F57
:1023C000C2F70EC0BA0F621F731F841F48F48795AF
:1023D00077956795B795F7959E3F08F0B0CF9395A1
:1023E000880F08F09927EE0F9795879508950E941A
:1023F000E11208F481E008950E9410120C941C135D
:102400000E94151358F00E940E1340F029F45F3F0C
:1024100029F00C94051351110C9450130C940B13C8
:102420000E942D1368F39923B1F3552391F3951B63
:10243000550BBB27AA2762177307840738F09F5FE5
:102440005F4F220F331F441FAA1FA9F335D00E2E52
:102450003AF0E0E832D091505040E695001CCAF7BF
:102460002BD0FE2F29D0660F771F881FBB1F261782
:1024700037074807AB07B0E809F0BB0B802DBF0159
:10248000FF2793585F4F3AF09E3F510578F00C9428
:1024900005130C9450135F3FE4F3983ED4F38695F4
:1024A00077956795B795F7959F5FC9F7880F911D49
:1024B0009695879597F90895E1E0660F771F881F35
:1024C000BB1F621773078407BA0720F0621B730BE8
:1024D000840BBA0BEE1F88F7E09508950E947512E1
:1024E0006894B1110C94501308950E94351388F02C
:1024F0009F5798F0B92F9927B751B0F0E1F0660FC8
:10250000771F881F991F1AF0BA95C9F714C0B13008
:1025100091F00E944F13B1E008950C944F13672F70
:10252000782F8827B85F39F0B93FCCF38695779537
:102530006795B395D9F73EF4909580957095619520
:102540007F4F8F4F9F4F0895E89409C097FB3EF44B
:1025500090958095709561957F4F8F4F9F4F9923F0
:10256000A9F0F92F96E9BB279395F695879577956E
:102570006795B795F111F8CFFAF4BB0F11F460FF2E
:102580001BC06F5F7F4F8F4F9F4F16C0882311F086
:1025900096E911C0772321F09EE8872F762F05C09A
:1025A000662371F096E8862F70E060E02AF09A9535
:1025B000660F771F881FDAF7880F9695879597F92A
:1025C0000895990F0008550FAA0BE0E8FEEF1616C4
:1025D0001706E807F907C0F012161306E407F50717
:1025E00098F0621B730B840B950B39F40A2661F08B
:1025F000232B242B252B21F408950A2609F4A1402E
:10260000A6958FEF811D811D089597F99F6780E83A
:1026100070E060E008959FEF80EC089500240A9434
:102620001616170618060906089500240A941216AD
:102630001306140605060895092E0394000C11F4E0
:10264000882352F0BB0F40F4BF2B11F460FF04C08D
:102650006F5F7F4F8F4F9F4F089557FD9058440FE6
:10266000551F59F05F3F71F04795880F97FB991FF1
:1026700061F09F3F79F087950895121613061406AE
:10268000551FF2CF4695F1DF08C01616170618063B
:10269000991FF1CF86957105610508940895E89416
:1026A000BB2766277727CB0197F9089516F00C947E
:1026B000C3140C940B1368940C9405130E943513E7
:1026C000A8F39923C1F3AEF3DF93CF931F930F9336
:1026D000FF92C92FDD2788232AF02197660F771FE5
:1026E000881FDAF720E030E040E85FEB9FE38839AD
:1026F00020F0803E38F021968F770E948B11E4E520
:10270000F0E004C00E948B11E1E8F0E00E94D114D7
:102710008B01BE01EC01FB2E6F5771097595771F78
:10272000880B990B0E94A61228E132E741E35FE390
:102730000E94B913AF2D9801AE01FF900F911F9128
:10274000CF91DF910E94A2110C941C130E94B91327
:102750000C941C130E940E1338F00E94151320F0E5
:10276000952311F00C9405130C940B1311240C9465
:1027700050130E942D1370F3959FC1F3950F50E0F5
:10278000551F629FF001729FBB27F00DB11D639F23
:10279000AA27F00DB11DAA1F649F6627B00DA11DC9
:1027A000661F829F2227B00DA11D621F739FB00D6F
:1027B000A11D621F839FA00D611D221F749F3327DF
:1027C000A00D611D231F849F600D211D822F762F78
:1027D0006A2F11249F5750409AF0F1F088234AF055
:1027E000EE0FFF1FBB1F661F771F881F91505040C1
:1027F000A9F79E3F510580F00C9405130C945013DB
:102800005F3FE4F3983ED4F3869577956795B79547
:10281000F795E7959F5FC1F7FE2B880F911D969561
:10282000879597F90895FA01EE0FFF1F309621055D
:102830003105A1F16115710561F48038BFE39B0793
:1028400049F168949038810561F08038BFEF9B07AB
:1028500041F099234AF5FF3FE1053105210519F1C2
:10286000E8940894E795D901AA2329F4AB2FBE2F49
:10287000F85FD0F310C0FF5F70F4A695E0F7F7396A
:1028800050F019F0FF3A38F49F779F930DD00F90D6
:1028900007FC9058089546F00C940B1360E070E02C
:1028A00080E89FE308954FE79F775F934F933F93AF
:1028B0002F930E945E132F913F914F915F910E9441
:1028C000A6130C9476140E94F81430F09F3710F47D
:1028D0000C9450130C94A8140C94C31429F416F0FF
:1028E0000C9405130C944F130C940B130E94351386
:1028F000A8F39638A0F707F80F92E8942BE33AEA8A
:1029000048EB5FE70E94BC130F920F920F924DB7F6
:102910005EB70F920E945215EEEAF0E00E94D114C9
:102920004F915F91EF91FF91E595EE1FFF1F49F0E9
:10293000FE57E0684427EE0F441FFA95E1F74195F2
:10294000550B0E941C150F9007FE0C94101508954E
:10295000882371F4772321F09850872B762F07C0B6
:10296000662311F499270DC09051862B70E060E02A
:102970002AF09A95660F771F881FDAF7880F9695C9
:10298000879597F908959F3F31F0915020F48795EE
:1029900077956795B795880F911D9695879597F9C7
:1029A0000895DF93CF931F930F93FF92EF92DF92DF
:1029B0007B018C01689406C0DA2EEF010E94B913E6
:1029C000FE01E894A5912591359145915591A6F385
:1029D000EF010E94A211FE019701A801DA9469F7A4
:1029E000DF90EF90FF900F911F91CF91DF910895AD
:1029F0000E943513A0F0BEE7B91788F4BB279F38B3
:102A000060F41616B11D672F782F8827985FF7CFCF
:102A1000869577956795B11D93959639C8F3089576
:102A20009B01AC0160E070E080E89FE30C94FC1136
:102A30000C9405130C94C3140E943513D8F39923F6
:102A4000C9F3940F511DA3F39150504094F059F0E5
:102A5000882332F0660F771F881F91505040C1F7CE
:102A60009E3F51052CF7880F911D9695879597F9F4
:102A700008955F3FACF0983E9CF0BB278695779514
:102A80006795B79508F4B1609395C1F7BB0F58F7F8
:102A900011F460FFE8CF6F5F7F4F8F4F9F4FE3CF01
:102AA0000C945013FA01DC01AA0FBB1F9B01AC016F
:102AB000BF5728F4222733274427507820C0B75126
:102AC00090F4AB2F0024469537952795011CA395CC
:102AD000D2F3002071F0220F331F441FB395DAF3B5
:102AE0000ED00C948A1161307105A0E88A07B946AE
:102AF00030F49B01AC0166277727882790783096C1
:102B000021F020833183428353830895FC01882779
:102B10009927E89421912032E9F3293010F02E30E2
:102B2000C8F32B3241F02D3239F4689404C00E946E
:102B3000C215820F911D219120532A30C0F31EF43B
:102B4000909581959F4F0895FB01DC018D91019037
:102B500080190110D9F3990B0895FB01DC01019054
:102B60000D920020E1F70895FB01DC014150504037
:102B700030F08D910190801919F40020B9F7881B6D
:102B8000990B08957AE0979F902D879F802D910D46
:102B900011240895AEE0B0E0E0EDF5E10C94BD182D
:102BA0000D891E8986E08C831A8309838FEF9FE746
:102BB0009E838D83AE01475E5F4F6F89788DCE0116
:102BC00001960E94EC15EF81F885E00FF11F10824D
:102BD0002E96E4E00C94D918ABE0B0E0E2EFF5E11A
:102BE0000C94AF186C017B018A01FC0117821682DC
:102BF000838181FFCCC1CE0101963C01F601938116
:102C0000F70193FD859193FF81917F01882309F45A
:102C1000BAC1853239F493FD859193FF81917F018B
:102C2000853229F4B60190E00E94E317E7CF912C9A
:102C3000212C312CFFE1F315D8F08B3279F038F4E8
:102C4000803279F08332A1F4232D20611DC08D32B2
:102C500061F0803369F4232D216016C0832D8260DA
:102C6000382EE32DE4603E2E2AC0F32DF8601DC0FF
:102C700037FC2DC020ED280F2A3040F08E32B9F4F9
:102C800036FC81C1232D2064322E19C036FE06C0C9
:102C90008AE0989E200D1124922E11C0EAE02E9E0B
:102CA000200D1124222EF32DF0623F2E08C08C3609
:102CB00021F4832D8068382E02C0883641F4F70154
:102CC00093FD859193FF81917F018111B3CF982F5F
:102CD0009F7D9554933028F40C5F1F4F9FE3998399
:102CE0000DC0833631F0833771F0833509F059C058
:102CF00021C0F801808189830E5F1F4F882483944F
:102D0000912C530113C02801F2E04F0E511CF80121
:102D1000A080B18036FE03C0692D70E002C06FEF65
:102D20007FEFC5010E94D8174C018201F32DFF7778
:102D30003F2E16C0280122E0420E511CF801A0804F
:102D4000B18036FE03C0692D70E002C06FEF7FEFE7
:102D5000C5010E94CD174C01F32DF0683F2E820172
:102D600033FC1BC0822D90E088169906B0F4B601A2
:102D700080E290E00E94E3172A94F4CFF50137FC3B
:102D8000859137FE81915F01B60190E00E94E317C3
:102D900021102A9421E0821A91088114910471F77C
:102DA000E8C0843611F0893641F5F80137FE07C0D6
:102DB00060817181828193810C5F1F4F08C06081A7
:102DC0007181072E000C880B990B0E5F1F4FF32D9E
:102DD000FF763F2E97FF09C090958095709561957D
:102DE0007F4F8F4F9F4FF0683F2E2AE030E0A301C6
:102DF0000E941F18882E861845C0853731F4232D70
:102E00002F7EB22E2AE030E025C0932D997FB92E77
:102E10008F36C1F018F4883579F0B5C0803719F0D5
:102E2000883721F0B0C0E92FE061BE2EB4FE0DC09E
:102E3000FB2DF460BF2E09C034FE0AC0292F266086
:102E4000B22E06C028E030E005C020E130E002C02C
:102E500020E132E0F801B7FE07C060817181828114
:102E600093810C5F1F4F06C06081718180E090E00C
:102E70000E5F1F4FA3010E941F18882E8618FB2D7E
:102E8000FF773F2E36FE0DC0232D2E7FA22E8914F4
:102E900058F434FE0BC032FC09C0832D8E7EA82E60
:102EA00005C0B82CA32C03C0B82C01C0B92CA4FEBB
:102EB0000FC0FE01E80DF11D8081803321F49A2DB1
:102EC000997EA92E09C0A2FE06C0B394B39404C093
:102ED0008A2D867809F0B394A3FC11C0A0FE06C029
:102EE000B21488F4280C922C9B180EC0B21460F413
:102EF000B60180E290E00E94E317B394F7CFB214DA
:102F000018F42B1802C0982C212CA4FE10C0B60176
:102F100080E390E00E94E317A2FE17C0A1FC03C06B
:102F200088E790E002C088E590E0B6010CC08A2DE9
:102F3000867859F0A1FE02C08BE201C080E2A7FCB6
:102F40008DE2B60190E00E94E317891438F4B601CF
:102F500080E390E00E94E3179A94F7CF8A94F301FC
:102F6000E80DF11D8081B60190E00E94E317811009
:102F7000F5CF222009F442CEB60180E290E00E9413
:102F8000E3172A94F6CFF6018681978102C08FEF6E
:102F90009FEF2B96E2E10C94CB18FC010590615059
:102FA00070400110D8F7809590958E0F9F1F08955F
:102FB000FC016150704001900110D8F78095909508
:102FC0008E0F9F1F08950F931F93CF93DF93FB01E5
:102FD000238121FD03C08FEF9FEF2CC022FF16C07D
:102FE00046815781248135814217530744F4A081DB
:102FF000B1819D012F5F3F4F318320838C932681C8
:1030000037812F5F3F4F3783268314C08B01EC013C
:10301000FB010084F185E02D0995892BE1F6D801AB
:1030200016968D919C911797019617969C938E9367
:103030001697CE01DF91CF911F910F910895FA015C
:10304000AA27283051F1203181F1E8946F936E7FE7
:103050006E5F7F4F8F4F9F4FAF4FB1E03ED0B4E0D8
:103060003CD0670F781F891F9A1FA11D680F791F19
:103070008A1F911DA11D6A0F711D811D911DA11D2A
:1030800020D009F468943F912AE0269F112430193A
:10309000305D3193DEF6CF010895462F4770405DD5
:1030A0004193B3E00FD0C9F7F6CF462F4F70405D84
:1030B0004A3318F0495D31FD4052419302D0A9F7DF
:1030C000EACFB4E0A6959795879577956795BA95D9
:1030D000C9F700976105710508959B01AC010A2E9F
:1030E00006945795479537952795BA95C9F7620F76
:1030F000731F841F951FA01D0895DC01CB01FC01E7
:10310000E199FECF06C0FFBBEEBBE09A31960DB24F
:103110000D9241505040B8F70895A8E1B0E042E068
:1031200050E00C947F18DC01CB0103C02D910E946C
:103130009E1841505040D0F70895262FE199FECFB8
:103140009FBB8EBB2DBB0FB6F894E29AE19A0FBEDF
:10315000019608950E949D18272F0C949E182F9277
:103160003F924F925F926F927F928F929F92AF9217
:10317000BF92CF92DF92EF92FF920F931F93CF9364
:10318000DF93CDB7DEB7CA1BDB0B0FB6F894DEBFFB
:103190000FBECDBF09942A88398848885F846E8421
:1031A0007D848C849B84AA84B984C884DF80EE806B
:1031B000FD800C811B81AA81B981CE0FD11D0FB674
:1031C000F894DEBF0FBECDBFED010895F894FFCF98
:1031D0001043414E43454C004F4B0043414C494244
:1031E000202E2E2E0020205348414D5349202050A0
:1031F0004F5552002D3E4D4F48414D4144205A41BC
:1032000052453C2D00536D6F6B65204465746563BA
:10321000746F720020202057454C434F4D450033BA
:1032200033134014AE073FF628DCBE33331340CDD2
:10323000CC4C3E6666E6BE0000010008002000405F
:1032400000800000010004000001000800400000B0
:1032500001000450726573732041206B657900434F
:10326000616C696220526F202E2E2E00434F4D500C
:103270004C455445442E2E00526F3A200020204BDE
:103280002D6F686D00533D002020204C3D0074657B
:103290006D703A20002743202000526F203D20000F
:1032A000656570726F6D2073617665640046697242
:1032B00073742074696D6500454E54455220504129
:1032C0005353004E4F5420434F5252454354004EE7
:1032D00045572050415353574F52440054525920A0
:1032E000414741494E00534554204E4557205041D7
:1032F00053530054454C002D3E534156453C2D0040
:103300004C5047204D41582050504D3A00534D4F9E
:103310004B45204D41582050504D3A004C4D3D00FA
:103320002020534D3D004D41582054454D503A000A
:103330004D41582054454D503D0054454C3D2000D2
:10334000534D4B203D202020004C5047203D202055
:103350002000544D50203D20202000524553542041
:10336000544845204445564943450025640025738B
:0833700025642E2530326400B3
:00000001FF
