:100000000C942A000C9434000C9434000C943400AA
:100010000C9434000C9434000C9434000C94340090
:100020000C9434000C9434000C9434000C94340080
:100030000C9434000C9434000C9434000C94340070
:100040000C9434000C9434000C9434000C94340060
:100050000C94340011241FBECFE5D8E0DEBFCDBF25
:100060000E9436000C944C000C9400008FEF81BB72
:100070002FEF82E597E0215080409040E1F700C0EB
:10008000000012BA2FEF81EE94E0215080409040A2
:0C009000E1F700C00000ECCFF894FFCFB7
:00000001FF
