:100000000C946B000C9488000C9488000C9488006D
:100010000C9488000C9488000C9488000C94880040
:100020000C9488000C9488000C9488000C94880030
:100030000C9488000C9488000C9488000C94880020
:100040000C9488000C9488000C9488000C94880010
:100050000C94880008000000BE922449123EABAA0E
:10006000AA2ABECDCCCC4C3E00000080BEABAAAAD2
:10007000AA3E00000000BF000000803F000000001A
:1000800000084178D3BB4387D1133D190E3CC3BD53
:100090004282AD2B3E68EC8276BED98FE1A93E4C00
:1000A00080EFFFBE01C4FF7F3F0000000000076338
:1000B0004236B79BD8A71A39685618AEBAAB558CDA
:1000C0001D3CB7CC5763BD6DEDFD753EF617723123
:1000D000BF000000803F11241FBECFE5D8E0DEBF87
:1000E000CDBF10E0A0E6B0E0E8E6F4E102C0059084
:1000F0000D92AE3AB107D9F721E0AEEAB0E001C007
:100100001D92A431B207E1F70E94D7020C94320A83
:100110000C94000017B83D9887B1806C87B916B869
:1001200086B1866886B90895369A089597B1907613
:1001300097B997B1892B87B90E949400349BFECF61
:1001400024B185B190E0982F8827820F911D0895E2
:100150000C948A00CF92DF92EF92FF92CF93DF93BD
:10016000EC018FEF93E0BC016C1B7D0B072E000CA4
:10017000880B990B0E9468042DEC3CEC4CE950E490
:100180000E9468056B017C01BE01DD0F880B990B95
:100190000E9468049B01AC01C701B6010E94BE0326
:1001A000DF91CF91FF90EF90DF90CF900895CF92A5
:1001B000DF92EF92FF92CF93DF93C2E3D0E0C12CA6
:1001C000D12C760180E00E9496000E94AA009B013B
:1001D000AC01C701B6010E944D036B017C018FE4A5
:1001E00093EC0197F1F700C00000219759F720E048
:1001F00030E048E452E4C701B6010E94BE032EEA93
:1002000037E44DE151E40E94BE03DF91CF91FF90AE
:10021000EF90DF90CF900895CF92DF92EF92FF9210
:10022000CF93DF93C5E0D0E0C12CD12C760180E0E4
:100230000E9496000E94AA009B01AC01C701B60172
:100240000E944D036B017C012FEF80E792E021506B
:1002500080409040E1F700C00000219741F720E086
:1002600030E040EA50E4C701B6010E94BE03DF91CE
:10027000CF91FF90EF90DF90CF900895CF93DF93D1
:10028000EA010E9420052C813D814E815F810E9400
:100290004C03288539854A855B850E94BE032881E9
:1002A00039814A815B810E944D039B01AC0160E072
:1002B00070E080E291E4DF91CF910C94D505411577
:1002C000510519F440E750E005C04130510521F4D3
:1002D00044E650E00C943E0160E070E0CB010895EC
:1002E00098B321E030E001C0220F8A95EAF720950B
:1002F000292328BB0895662379F0613079F448B347
:1003000021E030E0B90102C0660F771F8A95E2F75D
:10031000CB01842B88BB08950C94700108950C9434
:100320007B01CF93C82F80FF02C0C49A03C084E032
:100330000E947001C1FF02C0C59A03C085E00E94FF
:100340007001C2FF02C0C69A03C086E00E9470011D
:10035000C3FF03C0C79ACF91089587E0CF910C9453
:100360007001CF93C82F80E00E9470018C2F0E94F3
:100370009101C29A8FEC97E00197F1F700C000005D
:1003800082E00E9470018FEC97E00197F1F700C0C6
:100390000000CF91089580E00E94B10181E00E94A9
:1003A000B1018FE697E10197F1F700C000000895D1
:1003B000CF93813011F4CFE703C0823071F4CFEBDB
:1003C000C60F8C2F85958595859585950E94B101E1
:1003D0008C2F8F70CF910C94B101CF91089580E054
:1003E0000E9491018FE39CE90197F1F700C00000A2
:1003F00083E00E94B1018FE097E20197F1F700C01E
:10040000000083E00E94B1018FEE95E50197F1F7BE
:1004100000C0000083E00E94B10182E00E94B101AF
:1004200082E00E94B10188E00E94B10180E00E9458
:10043000B1018CE00E94B10180E00E94B10186E030
:100440000C94B101CF93C82FC09A85958595859559
:1004500085950E949101C29A8FEC97E00197F1F780
:1004600000C0000082E00E9470018FEC97E00197CD
:10047000F1F700C000008C2F8F700E949101C29A8A
:100480008FEC97E00197F1F700C0000082E00E9436
:1004900070018FEC97E00197F1F700C00000CF9159
:1004A0000895CF93DF93EC018991882319F00E947E
:1004B0002202FACFDF91CF9108958F929F92AF924F
:1004C000BF92CF92DF92EF92FF920F931F93CF9341
:1004D000DF93CDB7DEB7A0970FB6F894DEBF0FBE9F
:1004E000CDBF6B017C0120E030E0A9010E94B9037F
:1004F00087FD03C002EA10E006C00CE710E0F7FA3F
:10050000F094F7F8F094C701B6010E9430044B0153
:100510005C01072E000C880B990B0E9468049B015C
:10052000AC01C701B6010E944C0320E030E048EC6A
:1005300052E40E9468050E9425060E9430047F93C1
:100540006F939F928F921F930F938EE790E09F93EC
:100550008F938E010F5F1F4F1F930F930E944807C9
:10056000C8010E9451020FB6F894DEBF0FBECDBF86
:10057000A0960FB6F894DEBF0FBECDBFDF91CF912E
:100580001F910F91FF90EF90DF90CF90BF90AF90B1
:100590009F908F90089581E00E94B1018CE00C94AF
:1005A000B10181E00E94B10188E00C94B1018FEFAC
:1005B00087BB81BB0E94EF010E94CB0161E081E01B
:1005C0000E94D80188E890E00E9451020E948A00AF
:1005D0000E94D70060936000709361008093620076
:1005E000909363000E94CB0161E081E00E94D801FA
:1005F00086E990E00E945102609160007091610074
:1006000080916200909163000E945D020E940C0143
:100610002091600030916100409162005091630030
:100620000E94BE036B017C0141E050E00E945F012B
:100630004B015C0140E050E0C701B6010E945F0140
:100640006B017C0161E081E00E94D8018BE990E0C0
:100650000E945102C501B4010E945D0283EA90E04C
:100660000E94510261E082E00E94D80188EA90E095
:100670000E945102C701B6010E945D0283EA90E028
:100680000E9451022FEF80E792E02150804090407D
:10069000E1F700C00000BACF5058BB27AA270E943C
:1006A00064030C94DE040E94D00438F00E94D70446
:1006B00020F039F49F3F19F426F40C94CD040EF485
:1006C000E095E7FB0C94C704E92F0E94EF0458F370
:1006D000BA17620773078407950720F079F4A6F527
:1006E0000C9411050EF4E0950B2EBA2FA02D0B01E2
:1006F000B90190010C01CA01A0011124FF27591B67
:1007000099F0593F50F4503E68F11A16F040A22F6C
:10071000232F342F4427585FF3CF469537952795DD
:10072000A795F0405395C9F77EF41F16BA0B620BDC
:10073000730B840BBAF09150A1F0FF0FBB1F661F23
:10074000771F881FC2F70EC0BA0F621F731F841F66
:1007500048F4879577956795B795F7959E3F08F08C
:10076000B0CF9395880F08F09927EE0F979587954E
:1007700008950E94A30408F481E008950E94D20322
:100780000C94DE040E94D70458F00E94D00440F07C
:1007900029F45F3F29F00C94C70451110C94120501
:1007A0000C94CD040E94EF0468F39923B1F3552310
:1007B00091F3951B550BBB27AA2762177307840774
:1007C00038F09F5F5F4F220F331F441FAA1FA9F30A
:1007D00035D00E2E3AF0E0E832D091505040E695F8
:1007E000001CCAF72BD0FE2F29D0660F771F881F59
:1007F000BB1F261737074807AB07B0E809F0BB0B4C
:10080000802DBF01FF2793585F4F3AF09E3F51055F
:1008100078F00C94C7040C9412055F3FE4F3983E03
:10082000D4F3869577956795B795F7959F5FC9F748
:10083000880F911D9695879597F90895E1E0660FC9
:10084000771F881FBB1F621773078407BA0720F042
:10085000621B730B840BBA0BEE1F88F7E0950895AB
:100860000E9437046894B1110C94120508950E94F7
:10087000F70488F09F5798F0B92F9927B751B0F037
:10088000E1F0660F771F881F991F1AF0BA95C9F714
:1008900014C0B13091F00E941105B1E008950C949C
:1008A0001105672F782F8827B85F39F0B93FCCF34F
:1008B000869577956795B395D9F73EF49095809591
:1008C000709561957F4F8F4F9F4F0895E89409C0B1
:1008D00097FB3EF490958095709561957F4F8F4F73
:1008E0009F4F9923A9F0F92F96E9BB279395F69589
:1008F000879577956795B795F111F8CFFAF4BB0F07
:1009000011F460FF1BC06F5F7F4F8F4F9F4F16C06A
:10091000882311F096E911C0772321F09EE8872FF4
:10092000762F05C0662371F096E8862F70E060E0B0
:100930002AF09A95660F771F881FDAF7880F969529
:10094000879597F90895990F0008550FAA0BE0E8CD
:10095000FEEF16161706E807F907C0F01216130681
:10096000E407F50798F0621B730B840B950B39F4C1
:100970000A2661F0232B242B252B21F408950A2627
:1009800009F4A140A6958FEF811D811D089597F967
:100990009F6780E870E060E008959FEF80EC089525
:1009A00000240A941616170618060906089500244E
:1009B0000A9412161306140605060895092E0394C8
:1009C000000C11F4882352F0BB0F40F4BF2B11F43C
:1009D00060FF04C06F5F7F4F8F4F9F4F089557FD9B
:1009E0009058440F551F59F05F3F71F04795880F9D
:1009F00097FB991F61F09F3F79F087950895121634
:100A000013061406551FF2CF4695F1DF08C01616DF
:100A100017061806991FF1CF869571056105089490
:100A20000895E894BB2766277727CB0197F90895A7
:100A300016F00C9485060C94CD0468940C94C704AD
:100A40000E94F704A8F39923C1F3AEF3DF93CF9389
:100A50001F930F93FF92C92FDD2788232AF0219738
:100A6000660F771F881FDAF720E030E040E85FEB81
:100A70009FE3883920F0803E38F021968F770E94DE
:100A80004D03E4E5F0E004C00E944D03E1E8F0E02E
:100A90000E9493068B01BE01EC01FB2E6F5771097A
:100AA0007595771F880B990B0E94680428E132E73F
:100AB00041E35FE30E947B05AF2D9801AE01FF90FB
:100AC0000F911F91CF91DF910E9464030C94DE047B
:100AD0000E947B050C94DE040E94D00438F00E9432
:100AE000D70420F0952311F00C94C7040C94CD0486
:100AF00011240C9412050E94EF0470F3959FC1F32A
:100B0000950F50E0551F629FF001729FBB27F00DBB
:100B1000B11D639FAA27F00DB11DAA1F649F662710
:100B2000B00DA11D661F829F2227B00DA11D621F5F
:100B3000739FB00DA11D621F839FA00D611D221F19
:100B4000749F3327A00D611D231F849F600D211DFD
:100B5000822F762F6A2F11249F5750409AF0F1F080
:100B600088234AF0EE0FFF1FBB1F661F771F881FE9
:100B700091505040A9F79E3F510580F00C94C70456
:100B80000C9412055F3FE4F3983ED4F38695779575
:100B90006795B795F795E7959F5FC1F7FE2B880F8F
:100BA000911D9695879597F90895FA01EE0FFF1F0D
:100BB000309621053105A1F16115710561F4803888
:100BC000BFE39B0749F168949038810561F0803854
:100BD000BFEF9B0741F099234AF5FF3FE10531053F
:100BE000210519F1E8940894E795D901AA2329F47D
:100BF000AB2FBE2FF85FD0F310C0FF5F70F4A69547
:100C0000E0F7F73950F019F0FF3A38F49F779F93E7
:100C10000DD00F9007FC9058089546F00C94CD0429
:100C200060E070E080E89FE308954FE79F775F936F
:100C30004F933F932F930E9420052F913F914F9107
:100C40005F910E9468050C9438060E94BA0630F045
:100C50009F3710F40C9412050C946A060C948506C8
:100C600029F416F00C94C7040C9411050C94CD04CF
:100C70000E94F704A8F39638A0F707F80F92E894BB
:100C80002BE33AEA48EB5FE70E947E050F920F9252
:100C90000F924DB75EB70F920E941407EEEAF0E094
:100CA0000E9493064F915F91EF91FF91E595EE1FA2
:100CB000FF1F49F0FE57E0684427EE0F441FFA95E6
:100CC000E1F74195550B0E94DE060F9007FE0C944C
:100CD000D2060895882371F4772321F09850872B4A
:100CE000762F07C0662311F499270DC09051862BEB
:100CF00070E060E02AF09A95660F771F881FDAF798
:100D0000880F9695879597F908959F3F31F09150F8
:100D100020F4879577956795B795880F911D9695DF
:100D2000879597F90895DF93CF931F930F93FF92C1
:100D3000EF92DF927B018C01689406C0DA2EEF01FE
:100D40000E947B05FE01E894A5912591359145917E
:100D50005591A6F3EF010E946403FE019701A801DB
:100D6000DA9469F7DF90EF90FF900F911F91CF9188
:100D7000DF9108950E94F704A0F0BEE7B91788F448
:100D8000BB279F3860F41616B11D672F782F882770
:100D9000985FF7CF869577956795B11D93959639AE
:100DA000C8F308959B01AC0160E070E080E89FE328
:100DB0000C94BE030C94C7040C9485060E94F7049F
:100DC000D8F39923C9F3940F511DA3F391505040C8
:100DD00094F059F0882332F0660F771F881F9150E6
:100DE0005040C1F79E3F51052CF7880F911D9695F5
:100DF000879597F908955F3FACF0983E9CF0BB272C
:100E0000869577956795B79508F4B1609395C1F786
:100E1000BB0F58F711F460FFE8CF6F5F7F4F8F4F24
:100E20009F4FE3CF0C941205FA01DC01AA0FBB1F00
:100E30009B01AC01BF5728F4222733274427507861
:100E400020C0B75190F4AB2F0024469537952795D5
:100E5000011CA395D2F3002071F0220F331F441F11
:100E6000B395DAF30ED00C944C0361307105A0E811
:100E70008A07B94630F49B01AC016627772788279B
:100E80009078309621F020833183428353830895F4
:100E9000AEE0B0E0EEE4F7E00C94090A0D891E899B
:100EA00086E08C831A8309838FEF9FE79E838D836F
:100EB000AE01475E5F4F6F89788DCE0101960E942B
:100EC0006A07EF81F885E00FF11F10822E96E4E0AB
:100ED0000C94250AABE0B0E0E0E7F7E00C94FB09E6
:100EE0006C017B018A01FC0117821682838181FFDC
:100EF000CCC1CE0101963C01F6019381F70193FD2F
:100F0000859193FF81917F01882309F4BAC18532CD
:100F100039F493FD859193FF81917F01853229F406
:100F2000B60190E00E946109E7CF912C212C312C71
:100F3000FFE1F315D8F08B3279F038F4803279F094
:100F40008332A1F4232D20611DC08D3261F08033E6
:100F500069F4232D216016C0832D8260382EE32D85
:100F6000E4603E2E2AC0F32DF8601DC037FC2DC072
:100F700020ED280F2A3040F08E32B9F436FC81C1C2
:100F8000232D2064322E19C036FE06C08AE0989EBA
:100F9000200D1124922E11C0EAE02E9E200D112466
:100FA000222EF32DF0623F2E08C08C3621F4832DC3
:100FB0008068382E02C0883641F4F70193FD859190
:100FC00093FF81917F018111B3CF982F9F7D95541D
:100FD000933028F40C5F1F4F9FE399830DC0833635
:100FE00031F0833771F0833509F059C021C0F80121
:100FF000808189830E5F1F4F88248394912C530135
:1010000013C02801F2E04F0E511CF801A080B180FE
:1010100036FE03C0692D70E002C06FEF7FEFC5019F
:101020000E9456094C018201F32DFF773F2E16C016
:10103000280122E0420E511CF801A080B18036FE4A
:1010400003C0692D70E002C06FEF7FEFC5010E9401
:101050004B094C01F32DF0683F2E820133FC1BC07D
:10106000822D90E088169906B0F4B60180E290E0F7
:101070000E9461092A94F4CFF50137FC859137FE6F
:1010800081915F01B60190E00E94610921102A94CC
:1010900021E0821A91088114910471F7E8C0843626
:1010A00011F0893641F5F80137FE07C06081718182
:1010B000828193810C5F1F4F08C060817181072E70
:1010C000000C880B990B0E5F1F4FF32DFF763F2E00
:1010D00097FF09C090958095709561957F4F8F4FD0
:1010E0009F4FF0683F2E2AE030E0A3010E949D0947
:1010F000882E861845C0853731F4232D2F7EB22ED9
:101100002AE030E025C0932D997FB92E8F36C1F0AB
:1011100018F4883579F0B5C0803719F0883721F098
:10112000B0C0E92FE061BE2EB4FE0DC0FB2DF4600F
:10113000BF2E09C034FE0AC0292F2660B22E06C079
:1011400028E030E005C020E130E002C020E132E0DC
:10115000F801B7FE07C060817181828193810C5FC5
:101160001F4F06C06081718180E090E00E5F1F4FCD
:10117000A3010E949D09882E8618FB2DFF773F2E24
:1011800036FE0DC0232D2E7FA22E891458F434FE76
:101190000BC032FC09C0832D8E7EA82E05C0B82C52
:1011A000A32C03C0B82C01C0B92CA4FE0FC0FE01B3
:1011B000E80DF11D8081803321F49A2D997EA92EAE
:1011C00009C0A2FE06C0B394B39404C08A2D8678E9
:1011D00009F0B394A3FC11C0A0FE06C0B21488F4B9
:1011E000280C922C9B180EC0B21460F4B60180E259
:1011F00090E00E946109B394F7CFB21418F42B1851
:1012000002C0982C212CA4FE10C0B60180E390E00F
:101210000E946109A2FE17C0A1FC03C088E790E00C
:1012200002C088E590E0B6010CC08A2D867859F09E
:10123000A1FE02C08BE201C080E2A7FC8DE2B601F4
:1012400090E00E946109891438F4B60180E390E0CF
:101250000E9461099A94F7CF8A94F301E80DF11D79
:101260008081B60190E00E9461098110F5CF2220B3
:1012700009F442CEB60180E290E00E9461092A940E
:10128000F6CFF6018681978102C08FEF9FEF2B96F4
:10129000E2E10C94170AFC010590615070400110C6
:1012A000D8F7809590958E0F9F1F0895FC0161508F
:1012B000704001900110D8F7809590958E0F9F1F78
:1012C00008950F931F93CF93DF93FB01238121FD9B
:1012D00003C08FEF9FEF2CC022FF16C046815781BD
:1012E000248135814217530744F4A081B1819D01C7
:1012F0002F5F3F4F318320838C93268137812F5F6F
:101300003F4F3783268314C08B01EC01FB0100841F
:10131000F185E02D0995892BE1F6D80116968D917E
:101320009C911797019617969C938E931697CE01D2
:10133000DF91CF911F910F910895FA01AA272830CC
:1013400051F1203181F1E8946F936E7F6E5F7F4F92
:101350008F4F9F4FAF4FB1E03ED0B4E03CD0670F0E
:10136000781F891F9A1FA11D680F791F8A1F911D61
:10137000A11D6A0F711D811D911DA11D20D009F4B1
:1013800068943F912AE0269F11243019305D3193F3
:10139000DEF6CF010895462F4770405D4193B3E0DC
:1013A0000FD0C9F7F6CF462F4F70405D4A3318F083
:1013B000495D31FD4052419302D0A9F7EACFB4E034
:1013C000A6959795879577956795BA95C9F70097EC
:1013D0006105710508959B01AC010A2E069457958D
:1013E000479537952795BA95C9F7620F731F841FE4
:1013F000951FA01D08952F923F924F925F926F927A
:101400007F928F929F92AF92BF92CF92DF92EF9294
:10141000FF920F931F93CF93DF93CDB7DEB7CA1B15
:10142000DB0B0FB6F894DEBF0FBECDBF09942A8840
:10143000398848885F846E847D848C849B84AA84E8
:10144000B984C884DF80EE80FD800C811B81AA8175
:10145000B981CE0FD11D0FB6F894DEBF0FBECDBF40
:08146000ED010895F894FFCF9F
:10146800000020413333134014AE073FF628DCBE9A
:1014780033331340CDCC4C3E6666E6BE2D00257353
:1014880025642E253032640043616C6962204D5119
:1014980032202E2E2E00526F3A2000736D6F6B652E
:0E14A8003A20002070706D006C70673A2000D2
:00000001FF
