:100000000C946B000C9488000C9488000C9488006D
:100010000C9488000C9488000C9488000C94880040
:100020000C9488000C9488000C9488000C94880030
:100030000C9488000C9488000C9488000C94880020
:100040000C9488000C9488000C9488000C94880010
:100050000C94880008000000BE922449123EABAA0E
:10006000AA2ABECDCCCC4C3E00000080BEABAAAAD2
:10007000AA3E00000000BF000000803F000000001A
:1000800000084178D3BB4387D1133D190E3CC3BD53
:100090004282AD2B3E68EC8276BED98FE1A93E4C00
:1000A00080EFFFBE01C4FF7F3F0000000000076338
:1000B0004236B79BD8A71A39685618AEBAAB558CDA
:1000C0001D3CB7CC5763BD6DEDFD753EF617723123
:1000D000BF000000803F11241FBECFE5D8E0DEBF87
:1000E000CDBF10E0A0E6B0E0E8EBF2E102C0059081
:1000F0000D92A439B107D9F720E0A4E9B0E001C01E
:100100001D92AA3AB207E1F70E946F020C945A09B5
:100110000C94000017B83D9887B1806C87B916B869
:1001200086B1866886B90895369A089597B1907613
:1001300097B997B1892B87B90E949400349BFECF61
:1001400024B185B190E0982F8827820F911D0895E2
:100150000C948A00CF92DF92EF92FF92CF93DF93BD
:10016000EC018FEF93E0BC016C1B7D0B072E000CA4
:10017000880B990B0E94F20320E030E040E251E44A
:100180000E94CE046B017C01BE01DD0F880B990B30
:100190000E94F2039B01AC01C701B6010E94480313
:1001A000DF91CF91FF90EF90DF90CF900895CF92A5
:1001B000DF92EF92FF92CF93DF93C2E3D0E0C12CA6
:1001C000D12C760180E00E9496000E94AA009B013B
:1001D000AC01C701B6010E94DC026B017C012FEF6C
:1001E00084E39CE0215080409040E1F700C0000093
:1001F000219741F720E030E048E452E4C701B6011E
:100200000E9448032EEA37E44DE151E40E9448037E
:10021000DF91CF91FF90EF90DF90CF900895CF9234
:10022000DF92EF92FF92CF93DF93C5E0D0E0C12C35
:10023000D12C760180E00E9496000E94AA009B01CA
:10024000AC01C701B6010E94DC026B017C012FE703
:1002500088E391E0215080409040E1F700C0000029
:10026000219741F720E030E040EA50E4C701B601B1
:100270000E944803DF91CF91FF90EF90DF90CF90E5
:100280000895CF93DF93EA010E9486042C813D817B
:100290004E815F810E94DB02288539854A855B8516
:1002A0000E944803288139814A815B810E94DC02D7
:1002B0009B01AC0160E070E080E291E40E943B05AC
:1002C0000E94BA03CB01DF91CF91089541155105EA
:1002D00019F440E750E005C04130510521F444E6EF
:1002E00050E00C94410180E090E0089598B321E043
:1002F00030E001C0220F8A95EAF72095292328BB18
:100300000895662379F0613079F448B321E030E054
:10031000B90102C0660F771F8A95E2F7CB01842BE3
:1003200088BB08950C94760108950C948101CF93B5
:10033000C82F80FF02C0C49A03C084E00E947601E7
:10034000C1FF02C0C59A03C085E00E947601C2FFCA
:1003500002C0C69A03C086E00E947601C3FF03C0B4
:10036000C79ACF91089587E0CF910C947601CF93EF
:10037000C82F80E00E9476018C2F0E949701C29ABC
:100380008FEC97E00197F1F700C0000082E00E9437
:1003900076018FEC97E00197F1F700C00000CF9154
:1003A000089580E00E94B70181E00E94B7018FE6C6
:1003B00097E10197F1F700C000000895CF938130D5
:1003C00011F4CFE703C0823071F4CFEBC60F8C2F4E
:1003D00085958595859585950E94B7018C2F8F70A1
:1003E000CF910C94B701CF91089580E00E949701BE
:1003F0008FE39CE90197F1F700C0000083E00E94C1
:10040000B7018FE097E20197F1F700C0000083E0A9
:100410000E94B7018FEE95E50197F1F700C000004B
:1004200083E00E94B70182E00E94B70182E00E944F
:10043000B70188E00E94B70180E00E94B7018CE01C
:100440000E94B70180E00E94B70186E00C94B701DA
:10045000CF93C82FC09A85958595859585950E94DF
:100460009701C29A8FEC97E00197F1F700C0000066
:1004700082E00E9476018FEC97E00197F1F700C0CF
:1004800000008C2F8F700E949701C29A8FEC97E02A
:100490000197F1F700C0000082E00E9476018FEC26
:1004A00097E00197F1F700C00000CF910895CF9336
:1004B000DF93EC018991882319F00E942802FACF7A
:1004C000DF91CF91089581E00E94B7018CE00C94F8
:1004D000B70181E00E94B70188E00C94B7018FEF6B
:1004E00087BB0E94F5010E94D10161E081E00E947A
:1004F000DE018CE790E00E9457020E948A0082E8A9
:10050000C82E80E0D82EC4E9D0E099E8E92E90E02A
:10051000F92E0E94D10160E080E00E94DE0180E0BF
:100520000E9496008093A8009093A9009F938F93B8
:10053000DF92CF92DF93CF930E94700684E990E020
:100540000E94570260E082E00E94DE0181E00E948A
:1005500096008C0182E00E9496009801281B390BBE
:100560003F932F939F938F931F930F93FF92EF923D
:10057000DF93CF930E94700684E990E00E945702B7
:100580008FEF94E32CE0815090402040E1F700C0D1
:1005900000008FEF94E32CE0815090402040E1F781
:1005A00000C000008DB79EB740960FB6F8949EBF6E
:1005B0000FBE8DBFAECF5058BB27AA270E94F302B3
:1005C0000C9444040E94360438F00E943D0420F04C
:1005D00039F49F3F19F426F40C9433040EF4E0959B
:1005E000E7FB0C942D04E92F0E94550458F3BA1729
:1005F000620773078407950720F079F4A6F50C9439
:1006000077040EF4E0950B2EBA2FA02D0B01B90143
:1006100090010C01CA01A0011124FF27591B99F078
:10062000593F50F4503E68F11A16F040A22F232F84
:10063000342F4427585FF3CF469537952795A795D4
:10064000F0405395C9F77EF41F16BA0B620B730B7B
:10065000840BBAF09150A1F0FF0FBB1F661F771FEC
:10066000881FC2F70EC0BA0F621F731F841F48F4A1
:10067000879577956795B795F7959E3F08F0B0CF2A
:100680009395880F08F09927EE0F97958795089511
:100690000E945C030C9444040E943D0458F00E94A4
:1006A000360440F029F45F3F29F00C942D045111D9
:1006B0000C9478040C9433040E94550468F3992335
:1006C000B1F3552391F3951B550BBB27AA2762174E
:1006D0007307840738F09F5F5F4F220F331F441F5B
:1006E000AA1FA9F335D00E2E3AF0E0E832D091508F
:1006F0005040E695001CCAF72BD0FE2F29D0660F7C
:10070000771F881FBB1F261737074807AB07B0E8BE
:1007100009F0BB0B802DBF01FF2793585F4F3AF0C4
:100720009E3F510578F00C942D040C9478045F3FA3
:10073000E4F3983ED4F3869577956795B795F7954A
:100740009F5FC9F7880F911D9695879597F9089532
:10075000E1E0660F771F881FBB1F621773078407CE
:10076000BA0720F0621B730B840BBA0BEE1F88F7DD
:10077000E09508950E94C1036894B1110C94780427
:1007800008950E945D0488F09F5798F0B92F99272B
:10079000B751B0F0E1F0660F771F881F991F1AF06C
:1007A000BA95C9F714C0B13091F00E947704B1E056
:1007B00008950C947704672F782F8827B85F39F055
:1007C000B93FCCF3869577956795B395D9F73EF405
:1007D00090958095709561957F4F8F4F9F4F0895AD
:1007E000E89409C097FB3EF49095809570956195CB
:1007F0007F4F8F4F9F4F9923A9F0F92F96E9BB2781
:100800009395F695879577956795B795F111F8CFFC
:10081000FAF4BB0F11F460FF1BC06F5F7F4F8F4F67
:100820009F4F16C0882311F096E911C0772321F05D
:100830009EE8872F762F05C0662371F096E8862FF5
:1008400070E060E02AF09A95660F771F881FDAF74C
:10085000880F9695879597F9089597F99F6780E88F
:1008600070E060E008959FEF80EC089500240A9402
:100870001616170618060906089500240A9412167B
:100880001306140605060895092E0394000C11F4AE
:10089000882352F0BB0F40F4BF2B11F460FF04C05B
:1008A0006F5F7F4F8F4F9F4F089557FD9058440FB4
:1008B000551F59F05F3F71F04795880F97FB991FBF
:1008C00061F09F3F79F0879508951216130614067C
:1008D000551FF2CF4695F1DF08C016161706180609
:1008E000991FF1CF86957105610508940895E894E4
:1008F000BB2766277727CB0197F9089516F00C944C
:10090000C5050C94330468940C942D040E945D0476
:10091000A8F39923C1F3AEF3DF93CF931F930F9303
:10092000FF92C92FDD2788232AF02197660F771FB2
:10093000881FDAF720E030E040E85FEB9FE388397A
:1009400020F0803E38F021968F770E94DC02E4E5AB
:10095000F0E004C00E94DC02E1E8F0E00E94D30570
:100960008B01BE01EC01FB2E6F5771097595771F46
:10097000880B990B0E94F20328E132E741E35FE321
:100980000E94E104AF2D9801AE01FF900F911F91DD
:10099000CF91DF910E94F3020C9444040E94E10481
:1009A0000C9444040E94360438F00E943D0420F068
:1009B000952311F00C942D040C94330411240C9401
:1009C00078040E94550470F3959FC1F3950F50E091
:1009D000551F629FF001729FBB27F00DB11D639FF1
:1009E000AA27F00DB11DAA1F649F6627B00DA11D97
:1009F000661F829F2227B00DA11D621F739FB00D3D
:100A0000A11D621F839FA00D611D221F749F3327AC
:100A1000A00D611D231F849F600D211D822F762F45
:100A20006A2F11249F5750409AF0F1F088234AF022
:100A3000EE0FFF1FBB1F661F771F881F915050408E
:100A4000A9F79E3F510580F00C942D040C94780476
:100A50005F3FE4F3983ED4F3869577956795B79515
:100A6000F795E7959F5FC1F7FE2B880F911D96952F
:100A7000879597F90895FA01EE0FFF1F309621052B
:100A80003105A1F16115710561F48038BFE39B0761
:100A900049F168949038810561F08038BFEF9B0779
:100AA00041F099234AF5FF3FE1053105210519F190
:100AB000E8940894E795D901AA2329F4AB2FBE2F17
:100AC000F85FD0F310C0FF5F70F4A695E0F7F73938
:100AD00050F019F0FF3A38F49F779F930DD00F90A4
:100AE00007FC9058089546F00C94330460E070E0E1
:100AF00080E89FE308954FE79F775F934F933F937D
:100B00002F930E9486042F913F914F915F910E94F5
:100B1000CE040C94930529F416F00C942D040C9437
:100B200077040C9433040E945D04A8F39638A0F770
:100B300007F80F92E8942BE33AEA48EB5FE70E944C
:100B4000E4040F920F920F924DB75EB70F920E947E
:100B50003C06EEEAF0E00E94D3054F915F91EF91E1
:100B6000FF91E595EE1FFF1F49F0FE57E06844270F
:100B7000EE0F441FFA95E1F74195550B0E940606CA
:100B80000F9007FE0C94FA0508959F3F31F09150A5
:100B900020F4879577956795B795880F911D969561
:100BA000879597F90895DF93CF931F930F93FF9243
:100BB000EF92DF927B018C01689406C0DA2EEF0180
:100BC0000E94E104FE01E894A5912591359145919B
:100BD0005591A6F3EF010E94F302FE019701A801CF
:100BE000DA9469F7DF90EF90FF900F911F91CF910A
:100BF000DF9108959B01AC0160E070E080E89FE325
:100C00000C9448030C942D040C94C5050E945D04BB
:100C1000D8F39923C9F3940F511DA3F39150504079
:100C200094F059F0882332F0660F771F881F915097
:100C30005040C1F79E3F51052CF7880F911D9695A6
:100C4000879597F908955F3FACF0983E9CF0BB27DD
:100C5000869577956795B79508F4B1609395C1F738
:100C6000BB0F58F711F460FFE8CF6F5F7F4F8F4FD6
:100C70009F4FE3CF0C947804FA01DC01AA0FBB1F4D
:100C80009B01AC01BF5728F4222733274427507813
:100C900020C0B75190F4AB2F002446953795279587
:100CA000011CA395D2F3002071F0220F331F441FC3
:100CB000B395DAF30ED00C94DB0261307105A0E835
:100CC0008A07B94630F49B01AC016627772788274D
:100CD0009078309621F020833183428353830895A6
:100CE000AEE0B0E0E6E7F6E00C9431090D891E892C
:100CF00086E08C831A8309838FEF9FE79E838D8321
:100D0000AE01475E5F4F6F89788DCE0101960E94DC
:100D10009206EF81F885E00FF11F10822E96E4E035
:100D20000C944D09ABE0B0E0E8E9F6E00C9423093F
:100D30006C017B018A01FC0117821682838181FF8D
:100D4000CCC1CE0101963C01F6019381F70193FDE0
:100D5000859193FF81917F01882309F4BAC185327F
:100D600039F493FD859193FF81917F01853229F4B8
:100D7000B60190E00E948908E7CF912C212C312CFC
:100D8000FFE1F315D8F08B3279F038F4803279F046
:100D90008332A1F4232D20611DC08D3261F0803398
:100DA00069F4232D216016C0832D8260382EE32D37
:100DB000E4603E2E2AC0F32DF8601DC037FC2DC024
:100DC00020ED280F2A3040F08E32B9F436FC81C174
:100DD000232D2064322E19C036FE06C08AE0989E6C
:100DE000200D1124922E11C0EAE02E9E200D112418
:100DF000222EF32DF0623F2E08C08C3621F4832D75
:100E00008068382E02C0883641F4F70193FD859141
:100E100093FF81917F018111B3CF982F9F7D9554CE
:100E2000933028F40C5F1F4F9FE399830DC08336E6
:100E300031F0833771F0833509F059C021C0F801D2
:100E4000808189830E5F1F4F88248394912C5301E6
:100E500013C02801F2E04F0E511CF801A080B180B0
:100E600036FE03C0692D70E002C06FEF7FEFC50151
:100E70000E947E084C018201F32DFF773F2E16C0A1
:100E8000280122E0420E511CF801A080B18036FEFC
:100E900003C0692D70E002C06FEF7FEFC5010E94B3
:100EA00073084C01F32DF0683F2E820133FC1BC008
:100EB000822D90E088169906B0F4B60180E290E0A9
:100EC0000E9489082A94F4CFF50137FC859137FEFA
:100ED00081915F01B60190E00E94890821102A9457
:100EE00021E0821A91088114910471F7E8C08436D8
:100EF00011F0893641F5F80137FE07C06081718134
:100F0000828193810C5F1F4F08C060817181072E21
:100F1000000C880B990B0E5F1F4FF32DFF763F2EB1
:100F200097FF09C090958095709561957F4F8F4F81
:100F30009F4FF0683F2E2AE030E0A3010E94C508D1
:100F4000882E861845C0853731F4232D2F7EB22E8A
:100F50002AE030E025C0932D997FB92E8F36C1F05D
:100F600018F4883579F0B5C0803719F0883721F04A
:100F7000B0C0E92FE061BE2EB4FE0DC0FB2DF460C1
:100F8000BF2E09C034FE0AC0292F2660B22E06C02B
:100F900028E030E005C020E130E002C020E132E08E
:100FA000F801B7FE07C060817181828193810C5F77
:100FB0001F4F06C06081718180E090E00E5F1F4F7F
:100FC000A3010E94C508882E8618FB2DFF773F2EAF
:100FD00036FE0DC0232D2E7FA22E891458F434FE28
:100FE0000BC032FC09C0832D8E7EA82E05C0B82C04
:100FF000A32C03C0B82C01C0B92CA4FE0FC0FE0165
:10100000E80DF11D8081803321F49A2D997EA92E5F
:1010100009C0A2FE06C0B394B39404C08A2D86789A
:1010200009F0B394A3FC11C0A0FE06C0B21488F46A
:10103000280C922C9B180EC0B21460F4B60180E20A
:1010400090E00E948908B394F7CFB21418F42B18DB
:1010500002C0982C212CA4FE10C0B60180E390E0C1
:101060000E948908A2FE17C0A1FC03C088E790E097
:1010700002C088E590E0B6010CC08A2D867859F050
:10108000A1FE02C08BE201C080E2A7FC8DE2B601A6
:1010900090E00E948908891438F4B60180E390E05A
:1010A0000E9489089A94F7CF8A94F301E80DF11D04
:1010B0008081B60190E00E9489088110F5CF22203E
:1010C00009F442CEB60180E290E00E9489082A9499
:1010D000F6CFF6018681978102C08FEF9FEF2B96A6
:1010E000E2E10C943F09FC01059061507040011051
:1010F000D8F7809590958E0F9F1F0895FC01615041
:10110000704001900110D8F7809590958E0F9F1F29
:1011100008950F931F93CF93DF93FB01238121FD4C
:1011200003C08FEF9FEF2CC022FF16C0468157816E
:10113000248135814217530744F4A081B1819D0178
:101140002F5F3F4F318320838C93268137812F5F20
:101150003F4F3783268314C08B01EC01FB010084D1
:10116000F185E02D0995892BE1F6D80116968D9130
:101170009C911797019617969C938E931697CE0184
:10118000DF91CF911F910F910895FA01AA2728307E
:1011900051F1203181F1E8946F936E7F6E5F7F4F44
:1011A0008F4F9F4FAF4FB1E03ED0B4E03CD0670FC0
:1011B000781F891F9A1FA11D680F791F8A1F911D13
:1011C000A11D6A0F711D811D911DA11D20D009F463
:1011D00068943F912AE0269F11243019305D3193A5
:1011E000DEF6CF010895462F4770405D4193B3E08E
:1011F0000FD0C9F7F6CF462F4F70405D4A3318F035
:10120000495D31FD4052419302D0A9F7EACFB4E0E5
:10121000A6959795879577956795BA95C9F700979D
:101220006105710508959B01AC010A2E069457953E
:10123000479537952795BA95C9F7620F731F841F95
:10124000951FA01D08952F923F924F925F926F922B
:101250007F928F929F92AF92BF92CF92DF92EF9246
:10126000FF920F931F93CF93DF93CDB7DEB7CA1BC7
:10127000DB0B0FB6F894DEBF0FBECDBF09942A88F2
:10128000398848885F846E847D848C849B84AA849A
:10129000B984C884DF80EE80FD800C811B81AA8127
:1012A000B981CE0FD11D0FB6F894DEBF0FBECDBFF2
:0812B000ED010895F894FFCF51
:1012B800000020413333134014AE073FF628DCBE4C
:1012C80033331340CDCC4C3E6666E6BE48656C6C45
:1012D8006F006D71323A2564002825642D25642934
:0412E8003D2564003C
:00000001FF
