:100000000C942A000C943F000C943F000C943F0089
:100010000C943F000C943F000C943F000C943F0064
:100020000C943F000C943F000C943F000C943F0054
:100030000C943F000C943F000C943F000C943F0044
:100040000C943F000C943F000C943F000C943F0034
:100050000C943F0011241FBECFE5D8E0DEBFCDBF1A
:1000600010E0A0E6B0E0E4E2F0E102C005900D92FD
:10007000AA3BB107D9F70E9452020C9410080C94C5
:100080000000CF9383B394B320EF922794BB34B393
:100090009FE0392734BB35B3232725BB25B39227EF
:1000A00095BB2FE738E391E0215030409040E1F7D5
:1000B00000C00000C3B3C295C07FC82B6C2F70E096
:1000C00080E090E00E94BB030E94D801CE3E19F46C
:1000D0008CE890E031C0CE3D19F48EE890E02CC061
:1000E000CE3B19F480E990E027C0CE3719F48BEAB3
:1000F00090E022C0CD3E19F482E990E01DC0CD3DD4
:1001000019F484E990E018C0CD3B19F486E990E039
:1001100013C0CD3719F488E990E00EC0CB3E19F436
:100120008AE990E009C0CB3D19F48CE990E004C065
:10013000CB3B29F48EE990E00E949F011BC0CB3796
:1001400019F480EA90E013C0C73E19F482EA90E007
:100150000EC0C73D19F484EA90E009C0C73B19F40A
:1001600086EA90E004C0C73729F488EA90E0CF918E
:100170000C949F01CF91089598B321E030E001C025
:10018000220F8A95EAF72095292328BB0895662334
:1001900079F0613079F448B321E030E0B90102C070
:1001A000660F771F8A95E2F7CB01842B88BB0895F1
:1001B0000C94BC0008950C94C700CF93C82F80FF07
:1001C00002C0C49A03C084E00E94BC00C1FF02C008
:1001D000C59A03C085E00E94BC00C2FF02C0C69A57
:1001E00003C086E00E94BC00C3FF03C0C79ACF9142
:1001F000089587E0CF910C94BC00CF93C82F80E086
:100200000E94BC008C2F0E94DD00C29A8FEC97E008
:100210000197F1F700C0000082E00E94BC008FEC63
:1002200097E00197F1F700C00000CF91089580E0BA
:100230000E94FD0081E00E94FD008FE697E101979A
:10024000F1F700C000000895CF93813011F4CFE79B
:1002500003C0823071F4CFEBC60F8C2F8595859546
:10026000859585950E94FD008C2F8F70CF910C9401
:10027000FD00CF9108958FEF87BB80E00E94DD00E5
:100280008FE39CE90197F1F700C0000083E00E9432
:10029000FD008FE097E20197F1F700C0000083E0D6
:1002A0000E94FD008FEE95E50197F1F700C0000078
:1002B00083E00E94FD0082E00E94FD0082E00E9437
:1002C000FD0088E00E94FD0080E00E94FD008CE0BF
:1002D0000E94FD0080E00E94FD0086E00C94FD007D
:1002E000CF93C82FC09A85958595859585950E9451
:1002F000DD00C29A8FEC97E00197F1F700C0000093
:1003000082E00E94BC008FEC97E00197F1F700C0FB
:1003100000008C2F8F700E94DD00C29A8FEC97E056
:100320000197F1F700C0000082E00E94BC008FEC52
:1003300097E00197F1F700C00000CF910895CF93A7
:10034000DF93EC018991882319F00E947001FACFA4
:10035000DF91CF9108950F931F93CF93DF93CDB784
:10036000DEB7A0970FB6F894DEBF0FBECDBF9F9348
:100370008F938AEA90E09F938F938E010F5F1F4FB8
:100380001F930F930E942605C8010E949F010F90A2
:100390000F900F900F900F900F90A0960FB6F894BB
:1003A000DEBF0FBECDBFDF91CF911F910F9108959A
:1003B0008F929F92AF92BF92CF92DF92EF92FF9275
:1003C0000F931F93CF93DF93CDB7DEB7A0970FB6F0
:1003D000F894DEBF0FBECDBF6B017C0120E030E0A2
:1003E000A9010E94800387FD03C003E810E006C056
:1003F0000DEA10E0F7FAF094F7F8F094C701B601AF
:100400000E9485034B015C01072E000C880B990BA1
:100410000E94BD039B01AC01C701B6010E941303FA
:1004200020E030E048EC52E40E946D040E94DA04BF
:100430000E9485037F936F939F928F921F930F93D8
:100440008FEA90E09F938F938E010F5F1F4F1F9352
:100450000F930E942605C8010E949F010FB6F894D1
:10046000DEBF0FBECDBFA0960FB6F894DEBF0FBEA5
:10047000CDBFDF91CF911F910F91FF90EF90DF9053
:10048000CF90BF90AF909F908F90089581E00E9491
:10049000FD008CE00C94FD0081E00E94FD0088E0EE
:1004A0000C94FD000E943B010E9417018FE59AEE1B
:1004B0000197F1F700C0000061E081E00E94240193
:1004C00080E690E00E949F0161E082E00E942401AA
:1004D00080EF84BB8FEC97E00197F1F700C000003C
:1004E0008FE085BB8FEC97E00197F1F700C000002B
:1004F000C0E0D0E083B3803F09F47CC023B394B361
:10050000909594BB8FEC97E00197F1F700C0000045
:1005100095B3909595BB8FEC97E00197F1F700C0EC
:10052000000083B3822B873719F48CE690E04AC031
:10053000873B19F48EE690E045C0873D19F480E7CB
:1005400090E040C0873E19F482E790E03BC08B37D3
:1005500019F484E790E036C08B3B19F486E790E00D
:1005600031C08B3D19F488E790E02CC08B3E19F424
:100570008AE790E027C08D3719F48CE790E022C01D
:100580008D3B19F48EE790E01DC08D3D19F480E895
:1005900090E018C08D3E19F482E890E013C08E37C9
:1005A00019F484E890E00EC08E3B19F486E890E0E0
:1005B00009C08E3D19F488E890E004C08E3E29F40D
:1005C0008AE890E00E949F01219684B3809584BBC5
:1005D0008FEC97E00197F1F700C0000085B380959C
:1005E00085BB9FEF2EE585E0915020408040E1F7EC
:1005F00000C00000C031D10509F07CCF0E94170176
:100600008FE59AEE0197F1F700C0000061E081E00C
:100610000E94240180E690E00E949F0161E082E058
:100620000E94240165CF5058BB27AA270E942B03A4
:100630000C9433040E94250438F00E942C0420F00E
:1006400039F49F3F19F426F40C9422040EF4E0953B
:10065000E7FB0C941C04E92F0E94440458F3BA17DA
:10066000620773078407950720F079F4A6F50C94C8
:1006700066040EF4E0950B2EBA2FA02D0B01B901E4
:1006800090010C01CA01A0011124FF27591B99F008
:10069000593F50F4503E68F11A16F040A22F232F14
:1006A000342F4427585FF3CF469537952795A79564
:1006B000F0405395C9F77EF41F16BA0B620B730B0B
:1006C000840BBAF09150A1F0FF0FBB1F661F771F7C
:1006D000881FC2F70EC0BA0F621F731F841F48F431
:1006E000879577956795B795F7959E3F08F0B0CFBA
:1006F0009395880F08F09927EE0F979587950895A1
:100700000E94F80308F481E008950E948C03689425
:10071000B1110C94670408950E944C0488F09F570F
:1007200098F0B92F9927B751B0F0E1F0660F771F15
:10073000881F991F1AF0BA95C9F714C0B13091F00B
:100740000E946604B1E008950C946604672F782F28
:100750008827B85F39F0B93FCCF3869577956795D0
:10076000B395D9F73EF490958095709561957F4F3C
:100770008F4F9F4F0895E89409C097FB3EF49095E2
:100780008095709561957F4F8F4F9F4F9923A9F06A
:10079000F92F96E9BB279395F695879577956795F9
:1007A000B795F111F8CFFAF4BB0F11F460FF1BC03D
:1007B0006F5F7F4F8F4F9F4F16C0882311F096E9D0
:1007C00011C0772321F09EE8872F762F05C066237E
:1007D00071F096E8862F70E060E02AF09A95660F37
:1007E000771F881FDAF7880F9695879597F90895F0
:1007F000990F0008550FAA0BE0E8FEEF1616170632
:10080000E807F907C0F012161306E407F50798F099
:10081000621B730B840B950B39F40A2661F0232BB2
:10082000242B252B21F408950A2609F4A140A6952E
:100830008FEF811D811D089597F99F6780E870E013
:1008400060E008959FEF80EC089500240A94161646
:10085000170618060906089500240A9412161306AE
:10086000140605060895092E0394000C11F488233C
:1008700052F0BB0F40F4BF2B11F460FF04C06F5F58
:100880007F4F8F4F9F4F089557FD9058440F551F2E
:1008900059F05F3F71F04795880F97FB991F61F002
:1008A0009F3F79F087950895121613061406551F79
:1008B000F2CF4695F1DF08C0161617061806991FE5
:1008C000F1CF86957105610508940895E894BB27DA
:1008D00066277727CB0197F908950E9480040C942E
:1008E00033040E94250438F00E942C0420F0952344
:1008F00011F00C941C040C94220411240C94670431
:100900000E94440470F3959FC1F3950F50E0551F6A
:10091000629FF001729FBB27F00DB11D639FAA2754
:10092000F00DB11DAA1F649F6627B00DA11D661FA3
:10093000829F2227B00DA11D621F739FB00DA11DC4
:10094000621F839FA00D611D221F749F3327A00D7E
:10095000611D231F849F600D211D822F762F6A2F1A
:1009600011249F5750409AF0F1F088234AF0EE0F7F
:10097000FF1FBB1F661F771F881F91505040A9F7AC
:100980009E3F510580F00C941C040C9467045F3F5B
:10099000E4F3983ED4F3869577956795B795F795E8
:1009A000E7959F5FC1F7FE2B880F911D9695879560
:1009B00097F908950E940E0530F09F3710F40C94BB
:1009C00067040C94E5040C940005882371F47723E4
:1009D00021F09850872B762F07C0662311F49927B2
:1009E0000DC09051862B70E060E02AF09A95660F5A
:1009F000771F881FDAF7880F9695879597F90895DE
:100A00009F3F31F0915020F4879577956795B79582
:100A1000880F911D9695879597F908950E944C042B
:100A2000A0F0BEE7B91788F4BB279F3860F416160C
:100A3000B11D672F782F8827985FF7CF8695779518
:100A40006795B11D93959639C8F30895AEE0B0E06F
:100A5000ECE2F5E00C94E7070D891E8986E08C83B3
:100A60001A8309838FEF9FE79E838D83AE01475ED4
:100A70005F4F6F89788DCE0101960E944805EF8106
:100A8000F885E00FF11F10822E96E4E00C94030825
:100A9000ABE0B0E0EEE4F5E00C94D9076C017B012B
:100AA0008A01FC0117821682838181FFCCC1CE01AD
:100AB00001963C01F6019381F70193FD859193FF27
:100AC00081917F01882309F4BAC1853239F493FDFD
:100AD000859193FF81917F01853229F4B60190E0E1
:100AE0000E943F07E7CF912C212C312CFFE1F31519
:100AF000D8F08B3279F038F4803279F08332A1F477
:100B0000232D20611DC08D3261F0803369F4232DC7
:100B1000216016C0832D8260382EE32DE4603E2EC6
:100B20002AC0F32DF8601DC037FC2DC020ED280F22
:100B30002A3040F08E32B9F436FC81C1232D206476
:100B4000322E19C036FE06C08AE0989E200D112470
:100B5000922E11C0EAE02E9E200D1124222EF32D9C
:100B6000F0623F2E08C08C3621F4832D8068382E29
:100B700002C0883641F4F70193FD859193FF81917E
:100B80007F018111B3CF982F9F7D9554933028F426
:100B90000C5F1F4F9FE399830DC0833631F083377D
:100BA00071F0833509F059C021C0F8018081898333
:100BB0000E5F1F4F88248394912C530113C028018A
:100BC000F2E04F0E511CF801A080B18036FE03C048
:100BD000692D70E002C06FEF7FEFC5010E943407FE
:100BE0004C018201F32DFF773F2E16C0280122E031
:100BF000420E511CF801A080B18036FE03C0692D61
:100C000070E002C06FEF7FEFC5010E9429074C0121
:100C1000F32DF0683F2E820133FC1BC0822D90E043
:100C200088169906B0F4B60180E290E00E943F0772
:100C30002A94F4CFF50137FC859137FE81915F014D
:100C4000B60190E00E943F0721102A9421E0821A09
:100C500091088114910471F7E8C0843611F0893647
:100C600041F5F80137FE07C060817181828193816F
:100C70000C5F1F4F08C060817181072E000C880B2C
:100C8000990B0E5F1F4FF32DFF763F2E97FF09C084
:100C900090958095709561957F4F8F4F9F4FF0682D
:100CA0003F2E2AE030E0A3010E947B07882E8618A1
:100CB00045C0853731F4232D2F7EB22E2AE030E057
:100CC00025C0932D997FB92E8F36C1F018F4883541
:100CD00079F0B5C0803719F0883721F0B0C0E92F1E
:100CE000E061BE2EB4FE0DC0FB2DF460BF2E09C026
:100CF00034FE0AC0292F2660B22E06C028E030E05C
:100D000005C020E130E002C020E132E0F801B7FE8A
:100D100007C060817181828193810C5F1F4F06C083
:100D20006081718180E090E00E5F1F4FA3010E94FF
:100D30007B07882E8618FB2DFF773F2E36FE0DC0D1
:100D4000232D2E7FA22E891458F434FE0BC032FCC2
:100D500009C0832D8E7EA82E05C0B82CA32C03C0FD
:100D6000B82C01C0B92CA4FE0FC0FE01E80DF11D86
:100D70008081803321F49A2D997EA92E09C0A2FE8C
:100D800006C0B394B39404C08A2D867809F0B39456
:100D9000A3FC11C0A0FE06C0B21488F4280C922C4B
:100DA0009B180EC0B21460F4B60180E290E00E947D
:100DB0003F07B394F7CFB21418F42B1802C0982C45
:100DC000212CA4FE10C0B60180E390E00E943F07F2
:100DD000A2FE17C0A1FC03C088E790E002C088E52E
:100DE00090E0B6010CC08A2D867859F0A1FE02C0B1
:100DF0008BE201C080E2A7FC8DE2B60190E00E9488
:100E00003F07891438F4B60180E390E00E943F0761
:100E10009A94F7CF8A94F301E80DF11D8081B60111
:100E200090E00E943F078110F5CF222009F442CEC6
:100E3000B60180E290E00E943F072A94F6CFF601C7
:100E40008681978102C08FEF9FEF2B96E2E10C9491
:100E5000F507FC010590615070400110D8F78095AE
:100E600090958E0F9F1F0895FC0161507040019076
:100E70000110D8F7809590958E0F9F1F08950F93BE
:100E80001F93CF93DF93FB01238121FD03C08FEFDD
:100E90009FEF2CC022FF16C04681578124813581E7
:100EA0004217530744F4A081B1819D012F5F3F4F4A
:100EB000318320838C93268137812F5F3F4F378387
:100EC000268314C08B01EC01FB010084F185E02D29
:100ED0000995892BE1F6D80116968D919C9117976B
:100EE000019617969C938E931697CE01DF91CF9122
:100EF0001F910F910895FA01AA27283051F120314E
:100F000081F1E8946F936E7F6E5F7F4F8F4F9F4F9D
:100F1000AF4FB1E03ED0B4E03CD0670F781F891FDF
:100F20009A1FA11D680F791F8A1F911DA11D6A0FAD
:100F3000711D811D911DA11D20D009F468943F9160
:100F40002AE0269F11243019305D3193DEF6CF015F
:100F50000895462F4770405D4193B3E00FD0C9F725
:100F6000F6CF462F4F70405D4A3318F0495D31FD92
:100F70004052419302D0A9F7EACFB4E0A6959795E5
:100F8000879577956795BA95C9F7009761057105BB
:100F900008959B01AC010A2E069457954795379505
:100FA0002795BA95C9F7620F731F841F951FA01D5F
:100FB00008952F923F924F925F926F927F928F92FD
:100FC0009F92AF92BF92CF92DF92EF92FF920F93D8
:100FD0001F93CF93DF93CDB7DEB7CA1BDB0B0FB6E2
:100FE000F894DEBF0FBECDBF09942A88398848889F
:100FF0005F846E847D848C849B84AA84B984C88435
:10100000DF80EE80FD800C811B81AA81B981CE0F2B
:10101000D11D0FB6F894DEBF0FBECDBFED01089510
:04102000F894FFCF72
:1010240050726573732032206B657900310034008F
:1010340037002A0032003500380030003300360013
:101044003900230041004200430044006100620073
:101054006300650066006700680069006A006B0051
:101064006C006D006E006F0070002564002D00257B
:0A1074007325642E2530326400005D
:00000001FF
